{
  "address": "0xC4beD85D81004fC9326023E5B31392239179ee96",
  "abi": [
    {
      "inputs": [],
      "name": "AccessControlBadConfirmation",
      "type": "error"
    },
    {
      "inputs": [
        {
          "internalType": "address",
          "name": "account",
          "type": "address"
        },
        {
          "internalType": "bytes32",
          "name": "neededRole",
          "type": "bytes32"
        }
      ],
      "name": "AccessControlUnauthorizedAccount",
      "type": "error"
    },
    {
      "inputs": [
        {
          "internalType": "address",
          "name": "target",
          "type": "address"
        }
      ],
      "name": "AddressEmptyCode",
      "type": "error"
    },
    {
      "inputs": [
        {
          "internalType": "uint256",
          "name": "currencyAmount",
          "type": "uint256"
        }
      ],
      "name": "AmountOverflow",
      "type": "error"
    },
    {
      "inputs": [
        {
          "internalType": "uint256",
          "name": "currencyAmount",
          "type": "uint256"
        },
        {
          "internalType": "uint256",
          "name": "maxAmount",
          "type": "uint256"
        }
      ],
      "name": "CurrencyAmountTooHigh",
      "type": "error"
    },
    {
      "inputs": [
        {
          "internalType": "address",
          "name": "implementation",
          "type": "address"
        }
      ],
      "name": "ERC1967InvalidImplementation",
      "type": "error"
    },
    {
      "inputs": [],
      "name": "ERC1967NonPayable",
      "type": "error"
    },
    {
      "inputs": [],
      "name": "FailedCall",
      "type": "error"
    },
    {
      "inputs": [
        {
          "internalType": "uint256",
          "name": "required",
          "type": "uint256"
        },
        {
          "internalType": "uint256",
          "name": "actual",
          "type": "uint256"
        }
      ],
      "name": "InsufficientCurrency",
      "type": "error"
    },
    {
      "inputs": [
        {
          "internalType": "uint256",
          "name": "invalidLength",
          "type": "uint256"
        }
      ],
      "name": "InvalidActionsLength",
      "type": "error"
    },
    {
      "inputs": [],
      "name": "InvalidInitialization",
      "type": "error"
    },
    {
      "inputs": [
        {
          "internalType": "uint256",
          "name": "invalidLength",
          "type": "uint256"
        }
      ],
      "name": "InvalidParamsLength",
      "type": "error"
    },
    {
      "inputs": [
        {
          "internalType": "uint256",
          "name": "migrationBlock",
          "type": "uint256"
        },
        {
          "internalType": "uint256",
          "name": "currentBlock",
          "type": "uint256"
        }
      ],
      "name": "MigrationNotAllowed",
      "type": "error"
    },
    {
      "inputs": [],
      "name": "NoCurrencyRaised",
      "type": "error"
    },
    {
      "inputs": [],
      "name": "NotInitializing",
      "type": "error"
    },
    {
      "inputs": [
        {
          "internalType": "uint256",
          "name": "price",
          "type": "uint256"
        }
      ],
      "name": "PriceIsZero",
      "type": "error"
    },
    {
      "inputs": [
        {
          "internalType": "uint256",
          "name": "price",
          "type": "uint256"
        },
        {
          "internalType": "uint256",
          "name": "maxPrice",
          "type": "uint256"
        }
      ],
      "name": "PriceTooHigh",
      "type": "error"
    },
    {
      "inputs": [
        {
          "internalType": "address",
          "name": "token",
          "type": "address"
        }
      ],
      "name": "SafeERC20FailedOperation",
      "type": "error"
    },
    {
      "inputs": [
        {
          "internalType": "uint160",
          "name": "sqrtPriceX96",
          "type": "uint160"
        },
        {
          "internalType": "uint160",
          "name": "minSqrtPriceX96",
          "type": "uint160"
        },
        {
          "internalType": "uint160",
          "name": "maxSqrtPriceX96",
          "type": "uint160"
        }
      ],
      "name": "SqrtPriceX96OutOfBounds",
      "type": "error"
    },
    {
      "inputs": [],
      "name": "UUPSUnauthorizedCallContext",
      "type": "error"
    },
    {
      "inputs": [
        {
          "internalType": "bytes32",
          "name": "slot",
          "type": "bytes32"
        }
      ],
      "name": "UUPSUnsupportedProxiableUUID",
      "type": "error"
    },
    {
      "anonymous": false,
      "inputs": [
        {
          "indexed": true,
          "internalType": "address",
          "name": "auction",
          "type": "address"
        },
        {
          "indexed": true,
          "internalType": "address",
          "name": "token",
          "type": "address"
        },
        {
          "indexed": true,
          "internalType": "address",
          "name": "creator",
          "type": "address"
        },
        {
          "components": [
            {
              "internalType": "address",
              "name": "raisedCurrency",
              "type": "address"
            },
            {
              "internalType": "int24",
              "name": "tickSpacing",
              "type": "int24"
            },
            {
              "internalType": "uint64",
              "name": "startBlock",
              "type": "uint64"
            },
            {
              "internalType": "uint64",
              "name": "endBlock",
              "type": "uint64"
            },
            {
              "internalType": "uint64",
              "name": "claimBlock",
              "type": "uint64"
            },
            {
              "internalType": "uint256",
              "name": "floorPrice",
              "type": "uint256"
            },
            {
              "internalType": "uint128",
              "name": "requiredCurrencyRaised",
              "type": "uint128"
            },
            {
              "internalType": "uint128",
              "name": "auctionSupply",
              "type": "uint128"
            }
          ],
          "indexed": false,
          "internalType": "struct IUniClearLauncher.AuctionConfig",
          "name": "auctionConfig",
          "type": "tuple"
        }
      ],
      "name": "AuctionCreated",
      "type": "event"
    },
    {
      "anonymous": false,
      "inputs": [
        {
          "indexed": false,
          "internalType": "uint64",
          "name": "version",
          "type": "uint64"
        }
      ],
      "name": "Initialized",
      "type": "event"
    },
    {
      "anonymous": false,
      "inputs": [
        {
          "indexed": false,
          "internalType": "address",
          "name": "auctionAddress",
          "type": "address"
        },
        {
          "indexed": false,
          "internalType": "string",
          "name": "metadataUri",
          "type": "string"
        }
      ],
      "name": "MetadataUriUpdated",
      "type": "event"
    },
    {
      "anonymous": false,
      "inputs": [
        {
          "components": [
            {
              "internalType": "Currency",
              "name": "currency0",
              "type": "address"
            },
            {
              "internalType": "Currency",
              "name": "currency1",
              "type": "address"
            },
            {
              "internalType": "uint24",
              "name": "fee",
              "type": "uint24"
            },
            {
              "internalType": "int24",
              "name": "tickSpacing",
              "type": "int24"
            },
            {
              "internalType": "contract IHooks",
              "name": "hooks",
              "type": "address"
            }
          ],
          "indexed": false,
          "internalType": "struct PoolKey",
          "name": "key",
          "type": "tuple"
        },
        {
          "indexed": false,
          "internalType": "uint160",
          "name": "sqrtPriceX96",
          "type": "uint160"
        }
      ],
      "name": "Migrated",
      "type": "event"
    },
    {
      "anonymous": false,
      "inputs": [
        {
          "indexed": true,
          "internalType": "bytes32",
          "name": "role",
          "type": "bytes32"
        },
        {
          "indexed": true,
          "internalType": "bytes32",
          "name": "previousAdminRole",
          "type": "bytes32"
        },
        {
          "indexed": true,
          "internalType": "bytes32",
          "name": "newAdminRole",
          "type": "bytes32"
        }
      ],
      "name": "RoleAdminChanged",
      "type": "event"
    },
    {
      "anonymous": false,
      "inputs": [
        {
          "indexed": true,
          "internalType": "bytes32",
          "name": "role",
          "type": "bytes32"
        },
        {
          "indexed": true,
          "internalType": "address",
          "name": "account",
          "type": "address"
        },
        {
          "indexed": true,
          "internalType": "address",
          "name": "sender",
          "type": "address"
        }
      ],
      "name": "RoleGranted",
      "type": "event"
    },
    {
      "anonymous": false,
      "inputs": [
        {
          "indexed": true,
          "internalType": "bytes32",
          "name": "role",
          "type": "bytes32"
        },
        {
          "indexed": true,
          "internalType": "address",
          "name": "account",
          "type": "address"
        },
        {
          "indexed": true,
          "internalType": "address",
          "name": "sender",
          "type": "address"
        }
      ],
      "name": "RoleRevoked",
      "type": "event"
    },
    {
      "anonymous": false,
      "inputs": [
        {
          "indexed": true,
          "internalType": "address",
          "name": "implementation",
          "type": "address"
        }
      ],
      "name": "Upgraded",
      "type": "event"
    },
    {
      "inputs": [],
      "name": "DEAD_ADDRESS",
      "outputs": [
        {
          "internalType": "address",
          "name": "",
          "type": "address"
        }
      ],
      "stateMutability": "view",
      "type": "function"
    },
    {
      "inputs": [],
      "name": "DEFAULT_ADMIN_ROLE",
      "outputs": [
        {
          "internalType": "bytes32",
          "name": "",
          "type": "bytes32"
        }
      ],
      "stateMutability": "view",
      "type": "function"
    },
    {
      "inputs": [],
      "name": "FULL_RANGE_SIZE",
      "outputs": [
        {
          "internalType": "uint256",
          "name": "",
          "type": "uint256"
        }
      ],
      "stateMutability": "view",
      "type": "function"
    },
    {
      "inputs": [],
      "name": "FULL_RANGE_WITH_ONE_SIDED_SIZE",
      "outputs": [
        {
          "internalType": "uint256",
          "name": "",
          "type": "uint256"
        }
      ],
      "stateMutability": "view",
      "type": "function"
    },
    {
      "inputs": [],
      "name": "POOL_FEE",
      "outputs": [
        {
          "internalType": "uint24",
          "name": "",
          "type": "uint24"
        }
      ],
      "stateMutability": "view",
      "type": "function"
    },
    {
      "inputs": [],
      "name": "POOL_TICK_SPACING",
      "outputs": [
        {
          "internalType": "int24",
          "name": "",
          "type": "int24"
        }
      ],
      "stateMutability": "view",
      "type": "function"
    },
    {
      "inputs": [],
      "name": "UPGRADE_INTERFACE_VERSION",
      "outputs": [
        {
          "internalType": "string",
          "name": "",
          "type": "string"
        }
      ],
      "stateMutability": "view",
      "type": "function"
    },
    {
      "inputs": [
        {
          "internalType": "address",
          "name": "",
          "type": "address"
        }
      ],
      "name": "auctionInfo",
      "outputs": [
        {
          "internalType": "contract IContinuousClearingAuction",
          "name": "auction",
          "type": "address"
        },
        {
          "internalType": "address",
          "name": "creator",
          "type": "address"
        },
        {
          "internalType": "address",
          "name": "raisedCurrency",
          "type": "address"
        },
        {
          "internalType": "uint128",
          "name": "reserveSupply",
          "type": "uint128"
        },
        {
          "internalType": "uint64",
          "name": "endBlock",
          "type": "uint64"
        }
      ],
      "stateMutability": "view",
      "type": "function"
    },
    {
      "inputs": [],
      "name": "ccaFactory",
      "outputs": [
        {
          "internalType": "address",
          "name": "",
          "type": "address"
        }
      ],
      "stateMutability": "view",
      "type": "function"
    },
    {
      "inputs": [],
      "name": "create2Deployer",
      "outputs": [
        {
          "internalType": "address",
          "name": "",
          "type": "address"
        }
      ],
      "stateMutability": "view",
      "type": "function"
    },
    {
      "inputs": [],
      "name": "deployFee",
      "outputs": [
        {
          "internalType": "uint256",
          "name": "",
          "type": "uint256"
        }
      ],
      "stateMutability": "view",
      "type": "function"
    },
    {
      "inputs": [
        {
          "components": [
            {
              "internalType": "string",
              "name": "name",
              "type": "string"
            },
            {
              "internalType": "string",
              "name": "symbol",
              "type": "string"
            },
            {
              "internalType": "uint256",
              "name": "totalSupply",
              "type": "uint256"
            }
          ],
          "internalType": "struct IUniClearLauncher.TokenConfig",
          "name": "tokenConfig",
          "type": "tuple"
        },
        {
          "components": [
            {
              "internalType": "address",
              "name": "raisedCurrency",
              "type": "address"
            },
            {
              "internalType": "int24",
              "name": "tickSpacing",
              "type": "int24"
            },
            {
              "internalType": "uint64",
              "name": "startBlock",
              "type": "uint64"
            },
            {
              "internalType": "uint64",
              "name": "endBlock",
              "type": "uint64"
            },
            {
              "internalType": "uint64",
              "name": "claimBlock",
              "type": "uint64"
            },
            {
              "internalType": "uint256",
              "name": "floorPrice",
              "type": "uint256"
            },
            {
              "internalType": "uint128",
              "name": "requiredCurrencyRaised",
              "type": "uint128"
            },
            {
              "internalType": "uint128",
              "name": "auctionSupply",
              "type": "uint128"
            }
          ],
          "internalType": "struct IUniClearLauncher.AuctionConfig",
          "name": "auctionConfig",
          "type": "tuple"
        },
        {
          "internalType": "bytes32",
          "name": "salt",
          "type": "bytes32"
        },
        {
          "internalType": "string",
          "name": "metadataUri",
          "type": "string"
        }
      ],
      "name": "deployTokenAndLaunchAuction",
      "outputs": [
        {
          "internalType": "contract IContinuousClearingAuction",
          "name": "_auction",
          "type": "address"
        }
      ],
      "stateMutability": "payable",
      "type": "function"
    },
    {
      "inputs": [
        {
          "internalType": "bytes32",
          "name": "role",
          "type": "bytes32"
        }
      ],
      "name": "getRoleAdmin",
      "outputs": [
        {
          "internalType": "bytes32",
          "name": "",
          "type": "bytes32"
        }
      ],
      "stateMutability": "view",
      "type": "function"
    },
    {
      "inputs": [
        {
          "internalType": "bytes32",
          "name": "role",
          "type": "bytes32"
        },
        {
          "internalType": "address",
          "name": "account",
          "type": "address"
        }
      ],
      "name": "grantRole",
      "outputs": [],
      "stateMutability": "nonpayable",
      "type": "function"
    },
    {
      "inputs": [
        {
          "internalType": "bytes32",
          "name": "role",
          "type": "bytes32"
        },
        {
          "internalType": "address",
          "name": "account",
          "type": "address"
        }
      ],
      "name": "hasRole",
      "outputs": [
        {
          "internalType": "bool",
          "name": "",
          "type": "bool"
        }
      ],
      "stateMutability": "view",
      "type": "function"
    },
    {
      "inputs": [
        {
          "internalType": "address",
          "name": "positionManager_",
          "type": "address"
        },
        {
          "internalType": "address",
          "name": "create2Deployer_",
          "type": "address"
        },
        {
          "internalType": "address",
          "name": "ccaFactory_",
          "type": "address"
        }
      ],
      "name": "initialize",
      "outputs": [],
      "stateMutability": "nonpayable",
      "type": "function"
    },
    {
      "inputs": [
        {
          "internalType": "address",
          "name": "tokenAddress",
          "type": "address"
        },
        {
          "internalType": "uint256",
          "name": "reserveSupply",
          "type": "uint256"
        },
        {
          "components": [
            {
              "internalType": "address",
              "name": "raisedCurrency",
              "type": "address"
            },
            {
              "internalType": "int24",
              "name": "tickSpacing",
              "type": "int24"
            },
            {
              "internalType": "uint64",
              "name": "startBlock",
              "type": "uint64"
            },
            {
              "internalType": "uint64",
              "name": "endBlock",
              "type": "uint64"
            },
            {
              "internalType": "uint64",
              "name": "claimBlock",
              "type": "uint64"
            },
            {
              "internalType": "uint256",
              "name": "floorPrice",
              "type": "uint256"
            },
            {
              "internalType": "uint128",
              "name": "requiredCurrencyRaised",
              "type": "uint128"
            },
            {
              "internalType": "uint128",
              "name": "auctionSupply",
              "type": "uint128"
            }
          ],
          "internalType": "struct IUniClearLauncher.AuctionConfig",
          "name": "auctionConfig",
          "type": "tuple"
        },
        {
          "internalType": "bytes32",
          "name": "salt",
          "type": "bytes32"
        },
        {
          "internalType": "string",
          "name": "metadataUri",
          "type": "string"
        }
      ],
      "name": "launchAuction",
      "outputs": [
        {
          "internalType": "contract IContinuousClearingAuction",
          "name": "_auction",
          "type": "address"
        }
      ],
      "stateMutability": "payable",
      "type": "function"
    },
    {
      "inputs": [
        {
          "internalType": "address",
          "name": "token",
          "type": "address"
        }
      ],
      "name": "migrate",
      "outputs": [],
      "stateMutability": "nonpayable",
      "type": "function"
    },
    {
      "inputs": [
        {
          "internalType": "address",
          "name": "",
          "type": "address"
        },
        {
          "internalType": "address",
          "name": "",
          "type": "address"
        },
        {
          "internalType": "uint256",
          "name": "",
          "type": "uint256"
        },
        {
          "internalType": "bytes",
          "name": "",
          "type": "bytes"
        }
      ],
      "name": "onERC721Received",
      "outputs": [
        {
          "internalType": "bytes4",
          "name": "",
          "type": "bytes4"
        }
      ],
      "stateMutability": "pure",
      "type": "function"
    },
    {
      "inputs": [],
      "name": "positionManager",
      "outputs": [
        {
          "internalType": "contract IPositionManager",
          "name": "",
          "type": "address"
        }
      ],
      "stateMutability": "view",
      "type": "function"
    },
    {
      "inputs": [],
      "name": "proxiableUUID",
      "outputs": [
        {
          "internalType": "bytes32",
          "name": "",
          "type": "bytes32"
        }
      ],
      "stateMutability": "view",
      "type": "function"
    },
    {
      "inputs": [
        {
          "internalType": "bytes32",
          "name": "role",
          "type": "bytes32"
        },
        {
          "internalType": "address",
          "name": "callerConfirmation",
          "type": "address"
        }
      ],
      "name": "renounceRole",
      "outputs": [],
      "stateMutability": "nonpayable",
      "type": "function"
    },
    {
      "inputs": [
        {
          "internalType": "bytes32",
          "name": "role",
          "type": "bytes32"
        },
        {
          "internalType": "address",
          "name": "account",
          "type": "address"
        }
      ],
      "name": "revokeRole",
      "outputs": [],
      "stateMutability": "nonpayable",
      "type": "function"
    },
    {
      "inputs": [
        {
          "internalType": "uint256",
          "name": "deployFee_",
          "type": "uint256"
        }
      ],
      "name": "setDeployFee",
      "outputs": [],
      "stateMutability": "nonpayable",
      "type": "function"
    },
    {
      "inputs": [
        {
          "internalType": "bytes4",
          "name": "interfaceId",
          "type": "bytes4"
        }
      ],
      "name": "supportsInterface",
      "outputs": [
        {
          "internalType": "bool",
          "name": "",
          "type": "bool"
        }
      ],
      "stateMutability": "view",
      "type": "function"
    },
    {
      "inputs": [
        {
          "internalType": "address",
          "name": "auction",
          "type": "address"
        },
        {
          "internalType": "string",
          "name": "_metadataUri",
          "type": "string"
        }
      ],
      "name": "updateMetadataUri",
      "outputs": [],
      "stateMutability": "nonpayable",
      "type": "function"
    },
    {
      "inputs": [
        {
          "internalType": "address",
          "name": "newImplementation",
          "type": "address"
        },
        {
          "internalType": "bytes",
          "name": "data",
          "type": "bytes"
        }
      ],
      "name": "upgradeToAndCall",
      "outputs": [],
      "stateMutability": "payable",
      "type": "function"
    },
    {
      "inputs": [
        {
          "internalType": "address",
          "name": "recipient",
          "type": "address"
        }
      ],
      "name": "withdrawETH",
      "outputs": [],
      "stateMutability": "nonpayable",
      "type": "function"
    },
    {
      "stateMutability": "payable",
      "type": "receive"
    }
  ],
  "transactionHash": "0x847c2a072eb5828f4039f4dc6478f61b82c1e4991f1cc44fe59f10e362a0b80f",
  "args": [],
  "numDeployments": 1,
  "solcInputHash": "f02f20d33bfbe3b5c59992c2fbfc2c2f",
  "bytecode": "0x60a0806040523460295730608052614f66908161002e82396080518181816109c10152610b650152f35b5f80fdfe6080604052600436101561001a575b3615610018575f80fd5b005b5f3560e01c806301ffc9a7146101d95780630448e51a146101d45780630d0c23bf146101cf578063150b7a02146101ca578063248a9ca3146101c55780632f2ff15d146101c057806336568abe146101bb5780633e6ca284146101b65780634e6fd6c4146101b15780634f1ef286146101ac57806352d1902d146101a7578063607d4c2a146101a2578063688e69561461019d578063690d8320146101985780637381527f14610193578063791b98bc1461018e5780638b8eeeeb1461018957806391d1485414610184578063a217fddf1461017f578063a9e529871461017a578063ad3cb1cc14610175578063c0c53b8b14610170578063ce5494bb1461016b578063d11cb64914610166578063d547741f14610161578063dd1b9c4a1461015c578063e794ba51146101575763eb2a5d2c0361000e5761141d565b611344565b611329565b6112c9565b6111df565b611050565b610e17565b610db8565b610d73565b610d59565b610ce7565b610cc1565b610c9b565b610c80565b610bf6565b610bd0565b610bb5565b610b4b565b61096d565b610951565b610936565b6108cb565b610866565b610814565b610786565b610601565b61029c565b3461027a57602036600319011261027a576004357fffffffff00000000000000000000000000000000000000000000000000000000811680910361027a57807f7965db0b0000000000000000000000000000000000000000000000000000000060209214908115610250575b506040519015158152f35b7f01ffc9a7000000000000000000000000000000000000000000000000000000009150145f610245565b5f80fd5b6001600160a01b0381160361027a57565b359061029a8261027e565b565b3461027a57602036600319011261027a576001600160a01b036004356102c18161027e565b165f908152602081815260409182902080546001820154600283015460039093015485516001600160a01b039384168152918316948201949094529116928101929092526001600160801b038116606083015267ffffffffffffffff608091821c169082015260a090f35b0390f35b634e487b7160e01b5f52604160045260245ffd5b610100810190811067ffffffffffffffff82111761036157604052565b610330565b6060810190811067ffffffffffffffff82111761036157604052565b60a0810190811067ffffffffffffffff82111761036157604052565b60c0810190811067ffffffffffffffff82111761036157604052565b6040810190811067ffffffffffffffff82111761036157604052565b90601f8019910116810190811067ffffffffffffffff82111761036157604052565b6040519061029a610160836103d6565b6040519061029a60a0836103d6565b6040519061029a610100836103d6565b6040519061029a6040836103d6565b8060020b0361027a57565b359061029a82610436565b67ffffffffffffffff81160361027a57565b359061029a8261044c565b35906001600160801b038216820361027a57565b61010090604319011261027a576040519061049782610344565b816104a2604461028f565b81526104ae6064610441565b60208201526104bd608461045e565b60408201526104cc60a461045e565b60608201526104db60c461045e565b608082015260e43560a08201526104f3610104610469565b60c082015260e0610505610124610469565b910152565b61010090602319011261027a576040519061052482610344565b8161052f602461028f565b815261053b6044610441565b602082015261054a606461045e565b6040820152610559608461045e565b606082015261056860a461045e565b608082015260c43560a082015261057f60e4610469565b60c082015260e0610505610104610469565b67ffffffffffffffff811161036157601f01601f191660200190565b9291926105b982610591565b916105c760405193846103d6565b82948184528183011161027a578281602093845f960137010152565b9080601f8301121561027a578160206105fe933591016105ad565b90565b61018036600319011261027a5760043561061a8161027e565b6024356106263661047d565b91610164356101443567ffffffffffffffff821161027a57602061068b6106546106d19436906004016105e3565b95610662600254341461143a565b61068561067960e08a01516001600160801b031690565b6001600160801b031690565b90611499565b6040517f23b872dd000000000000000000000000000000000000000000000000000000008152336004820152306024820152604481019190915292839081906064820190565b03815f6001600160a01b0388165af19081156107815761032c957f20cc45d5c7c8916ce9fd33f096614497e0b2897d9ab503926afa411527c96c34946107379461072094610754575b50611ab2565b926040519182916001600160a01b038616836114ce565b0390a16040516001600160a01b0390911681529081906020820190565b6107759060203d60201161077a575b61076d81836103d6565b8101906114ab565b61071a565b503d610763565b6114c3565b3461027a57608036600319011261027a576107a260043561027e565b6107ad60243561027e565b60643567ffffffffffffffff811161027a573660238201121561027a57806004013567ffffffffffffffff811161027a573691016024011161027a576040517f150b7a02000000000000000000000000000000000000000000000000000000008152602090f35b3461027a57602036600319011261027a57602061085e6004355f527f02dd7bc7dec4dceedda775e58dd541e08a116c6c53815c0bd028192f7b626800602052600160405f20015490565b604051908152f35b3461027a57604036600319011261027a576100186024356004356108898261027e565b6108c66108c1825f527f02dd7bc7dec4dceedda775e58dd541e08a116c6c53815c0bd028192f7b626800602052600160405f20015490565b611f49565b612133565b3461027a57604036600319011261027a576004356024356108eb8161027e565b336001600160a01b03821603610904576100189161220b565b7f6697b232000000000000000000000000000000000000000000000000000000005f5260045ffd5b5f91031261027a57565b3461027a575f36600319011261027a57602060405160048152f35b3461027a575f36600319011261027a57602060405161dead8152f35b604036600319011261027a576004356109858161027e565b60243567ffffffffffffffff811161027a573660238201121561027a576109b69036906024816004013591016105ad565b906001600160a01b037f000000000000000000000000000000000000000000000000000000000000000016803014908115610b16575b50610aee576109f9611eda565b604051917f52d1902d0000000000000000000000000000000000000000000000000000000083526020836004816001600160a01b0386165afa5f9381610abd575b50610a5e57634c9c8ce360e01b5f526001600160a01b03821660045260245ffd5b5ffd5b907f360894a13ba1a3210667c828492db98dca3e2076cc3735a920a3ca505d382bbc8303610a90576100189250612ed3565b7faa1d49a4000000000000000000000000000000000000000000000000000000005f52600483905260245ffd5b610ae091945060203d602011610ae7575b610ad881836103d6565b8101906118c8565b925f610a3a565b503d610ace565b7fe07c8dba000000000000000000000000000000000000000000000000000000005f5260045ffd5b90506001600160a01b037f360894a13ba1a3210667c828492db98dca3e2076cc3735a920a3ca505d382bbc541614155f6109ec565b3461027a575f36600319011261027a576001600160a01b037f0000000000000000000000000000000000000000000000000000000000000000163003610aee5760206040517f360894a13ba1a3210667c828492db98dca3e2076cc3735a920a3ca505d382bbc8152f35b3461027a575f36600319011261027a57602060405160058152f35b3461027a575f36600319011261027a5760206001600160a01b0360015416604051908152f35b3461027a57602036600319011261027a575f808080600435610c178161027e565b610c1f611eda565b6001600160a01b034791165af1610c346114ee565b5015610c3c57005b606460405162461bcd60e51b815260206004820152601260248201527f556e61626c6520746f20776974686472617700000000000000000000000000006044820152fd5b3461027a575f36600319011261027a57602060405160018152f35b3461027a575f36600319011261027a5760206001600160a01b0360045416604051908152f35b3461027a575f36600319011261027a5760206001600160a01b0360035416604051908152f35b3461027a57604036600319011261027a57602060ff610d4d602435600435610d0e8261027e565b5f527f02dd7bc7dec4dceedda775e58dd541e08a116c6c53815c0bd028192f7b626800845260405f20906001600160a01b03165f5260205260405f2090565b54166040519015158152f35b3461027a575f36600319011261027a5760206040515f8152f35b3461027a57602036600319011261027a57600435610d8f611eda565b600255005b805180835260209291819084018484015e5f828201840152601f01601f1916010190565b3461027a575f36600319011261027a5761032c604051610dd96040826103d6565b600581527f352e302e300000000000000000000000000000000000000000000000000000006020820152604051918291602083526020830190610d94565b3461027a57606036600319011261027a57600435610e348161027e565b60243590610e418261027e565b604435610e4d8161027e565b7ff0c57e16840df040f15088dc2f81fe391c3923bec73e23a9662efc9c229c6a00549267ffffffffffffffff610e9360ff604087901c16159567ffffffffffffffff1690565b1680159081611048575b600114908161103e575b159081611035575b5061100d57610f199284610f10600167ffffffffffffffff197ff0c57e16840df040f15088dc2f81fe391c3923bec73e23a9662efc9c229c6a005416177ff0c57e16840df040f15088dc2f81fe391c3923bec73e23a9662efc9c229c6a0055565b610fa85761151d565b610f1f57005b610f7468ff0000000000000000197ff0c57e16840df040f15088dc2f81fe391c3923bec73e23a9662efc9c229c6a0054167ff0c57e16840df040f15088dc2f81fe391c3923bec73e23a9662efc9c229c6a0055565b604051600181527fc7f505b2f371ae2175ee4913f4499e1f2633a7b5936321eed1cdaeb6115181d29080602081015b0390a1005b6110086801000000000000000068ff0000000000000000197ff0c57e16840df040f15088dc2f81fe391c3923bec73e23a9662efc9c229c6a005416177ff0c57e16840df040f15088dc2f81fe391c3923bec73e23a9662efc9c229c6a0055565b61151d565b7ff92ee8a9000000000000000000000000000000000000000000000000000000005f5260045ffd5b9050155f610eaf565b303b159150610ea7565b859150610e9d565b3461027a57602036600319011261027a5760043561106d8161027e565b6110a661109a61108d836001600160a01b03165f525f60205260405f2090565b546001600160a01b031690565b6001600160a01b031690565b90813b1561027a576040517f7c1215740000000000000000000000000000000000000000000000000000000081525f8160048183875af18015610781576111cb575b50813b1561027a575f80926004604051809581937f5dd13ca70000000000000000000000000000000000000000000000000000000083525af1918215610781577f95cb306ff00e5e11a80ded9ef46c964545cdfb5c889f7f6a0711669d129f120f926111b1575b50611159816123de565b6111a161116582612659565b61119461118261117c83516001600160a01b031690565b85612925565b938261118e8183612ad4565b91612cb0565b516001600160a01b031690565b90610fa360405192839283611591565b806111bf5f6111c5936103d6565b8061092c565b5f61114f565b806111bf5f6111d9936103d6565b5f6110e8565b61016036600319011261027a5760043567ffffffffffffffff811161027a576060600319823603011261027a576040519061121982610366565b806004013567ffffffffffffffff811161027a5761123d90600436918401016105e3565b825260248101359067ffffffffffffffff821161027a57611266604492600436918401016105e3565b60208401520135604082015261127b3661050a565b9061014435906101243567ffffffffffffffff831161027a5761032c936112a96112af9436906004016105e3565b92611664565b6040516001600160a01b0390911681529081906020820190565b3461027a57604036600319011261027a576100186024356004356112ec8261027e565b6113246108c1825f527f02dd7bc7dec4dceedda775e58dd541e08a116c6c53815c0bd028192f7b626800602052600160405f20015490565b61220b565b3461027a575f36600319011261027a57602060405160648152f35b3461027a57604036600319011261027a576004356113618161027e565b60243567ffffffffffffffff811161027a576113819036906004016105e3565b6001600160a01b0382165f525f6020526001600160a01b03600160405f2001541633036113d9577f20cc45d5c7c8916ce9fd33f096614497e0b2897d9ab503926afa411527c96c3491610fa3604051928392836114ce565b606460405162461bcd60e51b815260206004820152600c60248201527f756e617574686f72697a656400000000000000000000000000000000000000006044820152fd5b3461027a575f36600319011261027a576020600254604051908152f35b1561144157565b606460405162461bcd60e51b815260206004820152600b60248201527f696e76616c6964206665650000000000000000000000000000000000000000006044820152fd5b634e487b7160e01b5f52601160045260245ffd5b919082018092116114a657565b611485565b9081602091031261027a5751801515810361027a5790565b6040513d5f823e3d90fd5b6040906001600160a01b036105fe94931681528160208201520190610d94565b3d15611518573d906114ff82610591565b9161150d60405193846103d6565b82523d5f602084013e565b606090565b6001600160a01b039291838092611532612fb6565b61153a612fb6565b61154333611fb0565b5061154d3361205f565b50166001600160a01b03196004541617600455166001600160a01b03196003541617600355166001600160a01b0319600154161760015566038d7ea4c68000600255565b9092916001600160a01b0360a0916115ea8460c08101976001600160a01b036080809282815116855282602082015116602086015262ffffff6040820151166040860152606081015160020b6060860152015116910152565b16910152565b9081602091031261027a57516105fe8161027e565b906060926001600160a01b0380929796959716835260806020840152604061165161163b835187608088015260e0870190610d94565b6020840151868203607f190160a0880152610d94565b91015160c0840152951660408201520152565b91602081929395949561167a600254341461143a565b6003546001600160a01b0316906116c060405194859384937fd32d8ada000000000000000000000000000000000000000000000000000000008552309160048601611605565b0381734F82aF98e689586Dea66770F4502D7e1409a53765af4918215610781577f20cc45d5c7c8916ce9fd33f096614497e0b2897d9ab503926afa411527c96c349361172d93611716935f916117325750611ab2565b936040519182916001600160a01b038716836114ce565b0390a1565b611754915060203d60201161175a575b61174c81836103d6565b8101906115f0565b5f61071a565b503d611742565b9067ffffffffffffffff8091169116039067ffffffffffffffff82116114a657565b634e487b7160e01b5f52601260045260245ffd5b64ffffffffff1680156117ac57629896800490565b611783565b6101806101406105fe93602084526117d56020850182516001600160a01b03169052565b60208101516001600160a01b0316604085015260408101516001600160a01b03166060850152606081015167ffffffffffffffff166080850152608081015167ffffffffffffffff1660a085015260a081015167ffffffffffffffff1660c085015260c081015160020b60e085015260e08101516001600160a01b031661010085015261010081015161012085015261187e610120820151838601906001600160801b03169052565b015191610160808201520190610d94565b9493926001600160801b036060936001600160a01b036118c394168852166020870152608060408701526080860190610d94565b930152565b9081602091031261027a575190565b906001600160801b03809116911603906001600160801b0382116114a657565b6080600367ffffffffffffffff9261192f6001600160a01b0386511682906001600160a01b03166001600160a01b0319825416179055565b61195f6001600160a01b0360208701511660018301906001600160a01b03166001600160a01b0319825416179055565b61198f6001600160a01b0360408701511660028301906001600160a01b03166001600160a01b0319825416179055565b01926001600160801b036060820151167fffffffffffffffffffffffffffffffff000000000000000000000000000000008554161784550151167fffffffffffffffff0000000000000000ffffffffffffffffffffffffffffffff77ffffffffffffffff0000000000000000000000000000000083549260801b169116179055565b61029a9092919260e0806101008301956001600160a01b038151168452602081015160020b602085015267ffffffffffffffff6040820151166040850152611a6a6060820151606086019067ffffffffffffffff169052565b60808181015167ffffffffffffffff169085015260a081015160a0850152611aa260c082015160c08601906001600160801b03169052565b01516001600160801b0316910152565b9291606082018051611acb9067ffffffffffffffff1690565b9160408401928351611ae49067ffffffffffffffff1690565b611aed91611761565b64ffffffffff1684516001600160a01b0316935167ffffffffffffffff16835167ffffffffffffffff16608087015167ffffffffffffffff16602088015160020b9060a08901519260c08a0151611b4a906001600160801b031690565b94611b5487611797565b60405160e89190911b7fffffff000000000000000000000000000000000000000000000000000000000016602082015260d89790971b7fffffffffff00000000000000000000000000000000000000000000000000000016602388015260088752611bc06028886103d6565b611bc86103f8565b6001600160a01b03909a168a52600160208b0152600160408b015267ffffffffffffffff1660608a015267ffffffffffffffff16608089015267ffffffffffffffff1660a088015260020b60c08701525f60e08701526101008601526001600160801b03166101208501526101408401526001546001600160a01b03166001600160a01b03166001600160a01b031660e08501938451611c6e906001600160801b031690565b60405180926020820190611c81916117b1565b03601f1981018352611c9390836103d6565b8860405194859384937f037705040000000000000000000000000000000000000000000000000000000085526004850193611ccd9461188f565b03815a6020945f91f18015610781576001600160a01b03915f91611ebb575b501694611d0084516001600160a01b031690565b6040516370a0823160e01b81523060048201526001600160a01b038316949091602083602481895afa801561078157611de8611dfa95611dd2611ded94611dc1611e019a8f96611d80611d71611db1928c6106799e5f92611e8d575b50516001600160801b039081165b91166118d7565b925167ffffffffffffffff1690565b93611d9b611d8c610408565b6001600160a01b03909a168a52565b3360208a01526001600160a01b03166040890152565b6001600160801b03166060870152565b67ffffffffffffffff166080850152565b6001600160a01b03165f525f60205260405f2090565b6118f7565b516001600160801b031690565b8583612e34565b833b1561027a576040517f331f2f650000000000000000000000000000000000000000000000000000000081525f8160048183895af1801561078157611e79575b50837f50b82f2f46e4e235c8ba31a1c009e3d0cbbff4fe9e695c6e84270d626b5e2e1a60405180611e74339682611a11565b0390a4565b806111bf5f611e87936103d6565b5f611e42565b6001600160801b03919250611eb3611d6a9160203d602011610ae757610ad881836103d6565b929150611d5c565b611ed4915060203d60201161175a5761174c81836103d6565b5f611cec565b335f9081527fb16e88c42fd4e48df2dd6a2eabd6bc9aec654ec170056b470819f8892cc6431c602052604090205460ff1615611f1257565b63e2517d3f60e01b5f52336004527fa49807205ce4d355092ef5a8a18f56e8913cf4a201fbe287825b095693c2177560245260445ffd5b805f527f02dd7bc7dec4dceedda775e58dd541e08a116c6c53815c0bd028192f7b62680060205260ff611f903360405f20906001600160a01b03165f5260205260405f2090565b541615611f9a5750565b63e2517d3f60e01b5f523360045260245260445ffd5b6001600160a01b0381165f9081527fb7db2dd08fcb62d0c9e08c51941cae53c267786a0b75803fb7960902fc8ef97d602052604090205460ff1661205a576001600160a01b03165f8181527fb7db2dd08fcb62d0c9e08c51941cae53c267786a0b75803fb7960902fc8ef97d60205260408120805460ff191660011790553391907f2f8788117e7eff1d82e926ec794901d17c78024a50270940304540a733656f0d8180a4600190565b505f90565b6001600160a01b0381165f9081527fb16e88c42fd4e48df2dd6a2eabd6bc9aec654ec170056b470819f8892cc6431c602052604090205460ff1661205a576001600160a01b0381165f9081527fb16e88c42fd4e48df2dd6a2eabd6bc9aec654ec170056b470819f8892cc6431c60205260409020805460ff1916600117905533906001600160a01b03167fa49807205ce4d355092ef5a8a18f56e8913cf4a201fbe287825b095693c217757f2f8788117e7eff1d82e926ec794901d17c78024a50270940304540a733656f0d5f80a4600190565b805f527f02dd7bc7dec4dceedda775e58dd541e08a116c6c53815c0bd028192f7b62680060205260ff61217a8360405f20906001600160a01b03165f5260205260405f2090565b541661220557805f527f02dd7bc7dec4dceedda775e58dd541e08a116c6c53815c0bd028192f7b6268006020526121c58260405f20906001600160a01b03165f5260205260405f2090565b805460ff1916600117905533916001600160a01b0316907f2f8788117e7eff1d82e926ec794901d17c78024a50270940304540a733656f0d5f80a4600190565b50505f90565b805f527f02dd7bc7dec4dceedda775e58dd541e08a116c6c53815c0bd028192f7b62680060205260ff6122528360405f20906001600160a01b03165f5260205260405f2090565b54161561220557805f527f02dd7bc7dec4dceedda775e58dd541e08a116c6c53815c0bd028192f7b62680060205261229e8260405f20906001600160a01b03165f5260205260405f2090565b805460ff1916905533916001600160a01b0316907ff6391f5c32d9c69d2a47ea670b442974b53935d1edc7fd64eb21e047a839171b5f80a4600190565b906040516122e881610382565b608067ffffffffffffffff80600384966001600160a01b0381541686526001600160a01b0360018201541660208701526001600160a01b03600282015416604087015201546001600160801b0381166060860152831c1616910152565b67ffffffffffffffff60019116019067ffffffffffffffff82116114a657565b519061029a8261044c565b908160c091031261027a57604051906123888261039e565b805182526020810151602083015260408101516040830152606081015162ffffff8116810361027a576123d69160a091606085015260808101516123cb8161044c565b608085015201612365565b60a082015290565b6123fb612400916001600160a01b03165f525f60205260405f2090565b6122db565b80516001600160a01b031661244c61243f61243a608061242a60408701516001600160a01b031690565b95015167ffffffffffffffff1690565b612345565b67ffffffffffffffff1690565b8043106125e357506001600160a01b031690604051917fc2c4c5c100000000000000000000000000000000000000000000000000000000835260c0836004815f855af1908115610781576004936020926125b6575b5060405193848092632662e93f60e21b82525afa918215610781575f92612595575b506001600160801b03821161255d578115612535576001600160a01b0316816124ec308361300d565b106124f5575050565b90612504610a5b92309061300d565b907f2bcaebd3000000000000000000000000000000000000000000000000000000005f529190604492600452602452565b7f21de4606000000000000000000000000000000000000000000000000000000005f5260045ffd5b7f4defa317000000000000000000000000000000000000000000000000000000005f5260048290526001600160801b0360245260445ffd5b6125af91925060203d602011610ae757610ad881836103d6565b905f6124c3565b6125d79060c03d60c0116125dc575b6125cf81836103d6565b810190612370565b6124a1565b503d6125c5565b7fa06fc0c9000000000000000000000000000000000000000000000000000000005f526004524360245260445ffd5b6040519060e0820182811067ffffffffffffffff821117610361576040525f60c0838281528260208201528260408201528260608201528260808201528260a08201520152565b612661612612565b9061267f6123fb826001600160a01b03165f525f60205260405f2090565b9061269182516001600160a01b031690565b6001600160a01b036126c160606126b260408701516001600160a01b031690565b9501516001600160801b031690565b911660405190632662e93f60e21b8252602082600481845afa908115610781576004925f926128c4575b50602090604051938480927f32a0f2d70000000000000000000000000000000000000000000000000000000082525afa9081156107815786611ded61283261276e6127bd6127ca61278f8a61284299610679996105fe9f8a9f6001600160801b039e5f94612894575b50906001600160a01b038f9281169116109788809461308d565b9161278861277b8461319b565b6001600160a01b03168d52565b169061322c565b93906127b06060604060208c019b019f019586906001600160801b03169052565b6001600160801b03168d52565b6001600160801b03168652565b8b516001600160a01b0316906127ed6127e8620d89e7195b60020b90565b613330565b6127fc6127e8620d89e86127e2565b9184156128835780516001600160801b0316945b1561286b5750898061282989516001600160801b031690565b16941692613666565b6001600160801b031660808a0152565b911611908115612857575b50151560a0830152565b516001600160801b0316151590505f61284d565b8a61287e8192516001600160801b031690565b612829565b87516001600160801b031694612810565b8f929194506001600160a01b036128ba819260203d602011610ae757610ad881836103d6565b9592935050612754565b60209192506128df90823d8411610ae757610ad881836103d6565b91906126eb565b604051906128f382610382565b5f6080838281528260208201528260408201528260608201520152565b9081602091031261027a57516105fe81610436565b91906020612a18916129356128e6565b506129b76001600160a01b0361297160406129636123fb8a6001600160a01b03165f525f60205260405f2090565b01516001600160a01b031690565b8188168282161097908815612a5b5780985b15612a5457505b6129a782612996610408565b991689906001600160a01b03169052565b166001600160a01b031683870152565b60646040860152600160608601525f6080860152846129e161109a6004546001600160a01b031690565b905f6040518096819582947ff702040500000000000000000000000000000000000000000000000000000000845260048401611591565b03925af1801561078157612a295750565b612a4a9060203d602011612a4d575b612a4281836103d6565b810190612910565b50565b503d612a38565b905061298a565b8198612983565b90612a7590604083526040830190610d94565b906020818303910152815180825260208201916020808360051b8301019401925f915b838310612aa757505050505090565b9091929394602080612ac5600193601f198682030187528951610d94565b97019301930191939290612a98565b6105fe91612c3c91612af96123fb826001600160a01b03165f525f60205260405f2090565b90612baa612b256060612b1660408601516001600160a01b031690565b9401516001600160801b031690565b91612b9a612b3a86516001600160a01b031690565b612b7c612b5160808901516001600160801b031690565b93612b6c612b5d610417565b6001600160a01b039099168952565b6001600160a01b03166020880152565b60646040870152600160608701526001600160a01b03166080860152565b6001600160801b031660a0840152565b61dead60c08301525f60e083015260a083015115612c5e5790612c26612c379260208501612c0a612bfa612be583516001600160801b031690565b60608901516001600160801b03169087613892565b919092516001600160801b031690565b90612c1f60408901516001600160801b031690565b92866139f5565b805160051460c09095019490945291565b6142c6565b9190612c5060405193849260208401612a62565b03601f1981018352826103d6565b509080612c8c6060612c7d6020612c939501516001600160801b031690565b9201516001600160801b031690565b9083613706565b916142c6565b9291906118c3602091604086526040860190610d94565b9190612d3c6001600160a01b0391612d37612cde6123fb876001600160a01b03165f525f60205260405f2090565b95612d10612d0a6060612cfb60408b01516001600160a01b031690565b9901516001600160801b031690565b84613a4b565b856001600160801b03612d2e61109a6004546001600160a01b031690565b92169216613a85565b613b32565b92166001600160a01b038116612db75750612d6261109a6004546001600160a01b031690565b803b1561027a576001600160801b03925f92612d969260405195868095819463dd46508f60e01b8352429060048401612c99565b039316905af1801561078157612da95750565b806111bf5f61029a936103d6565b612de191926001600160801b03612dd961109a6004546001600160a01b031690565b911691613a85565b612df661109a6004546001600160a01b031690565b803b1561027a57612e235f9291839260405194858094819363dd46508f60e01b8352429060048401612c99565b03925af1801561078157612da95750565b916020915f91604051906001600160a01b038583019363a9059cbb60e01b8552166024830152604482015260448152612e6e6064826103d6565b519082855af1156114c3575f513d612eca57506001600160a01b0381163b155b612e955750565b6001600160a01b03907f5274afe7000000000000000000000000000000000000000000000000000000005f521660045260245ffd5b60011415612e8e565b90813b15612f9a576001600160a01b038216806001600160a01b03197f360894a13ba1a3210667c828492db98dca3e2076cc3735a920a3ca505d382bbc5416177f360894a13ba1a3210667c828492db98dca3e2076cc3735a920a3ca505d382bbc557fbc7cd75a20ee27fd9adebab32041f755214dbc6bffa90cc0225b39da2e5c2d3b5f80a2805115612f6957612a4a91613b82565b505034612f7257565b7fb398979f000000000000000000000000000000000000000000000000000000005f5260045ffd5b6001600160a01b0382634c9c8ce360e01b5f521660045260245ffd5b60ff7ff0c57e16840df040f15088dc2f81fe391c3923bec73e23a9662efc9c229c6a005460401c1615612fe557565b7fd7e6bcf8000000000000000000000000000000000000000000000000000000005f5260045ffd5b6001600160a01b03811661302057503190565b906001600160a01b0360246020928260405195869485936370a0823160e01b8552166004840152165afa908115610781575f9161305b575090565b6105fe915060203d602011610ae757610ad881836103d6565b80156117ac57600160c01b0490565b81156117ac570490565b90811561316f5715613144576130a281613074565b60a01c61311b576130b96401000000008211613b9f565b80600160601b600160c01b0981805f03168092046002816003021880820260020302808202600203028082026002030280820260020302808202600203028091026002030291600181805f0304018215156401000000000302915f0304170290565b613127610a5b91613074565b6387ebe85d60e01b5f526004526001600160a01b03602452604490565b8060a01c6131525760601b90565b6387ebe85d60e01b5f526004526001600160a01b0360245260445ffd5b507fd173d09f000000000000000000000000000000000000000000000000000000005f5260045260245ffd5b6131ac6001600160a01b0391613dca565b166401000276a38110801561320f575b6131c35790565b7f6727b942000000000000000000000000000000000000000000000000000000005f526004526401000276a360245273fffd8963efd1fc6a506488495d951d5263988d2660445260645ffd5b5073fffd8963efd1fc6a506488495d951d5263988d2681116131bc565b909293915f90805f146132e45761324c6001600160801b03861684613c31565b915b6001600160801b03871692838111156132d1575050156132c3579061327291613ba6565b6001600160801b038111613298576001600160801b03613294911680936118d7565b9190565b7fff29cf0d000000000000000000000000000000000000000000000000000000005f5260045260245ffd5b6132cc91613c31565b613272565b6001600160801b03169650949392505050565b6132f7836001600160801b038716613ba6565b9161324e565b60020b80156117ac57620d89e7190590565b60020b80156117ac57620d89e80590565b613329816132fd565b0260020b90565b60020b908160ff1d82810118620d89e881116136575763ffffffff9192600182167001fffcb933bd6fad37aa2d162d1a5940010270010000000000000000000000000000000018916002811661363b575b6004811661361f575b60088116613603575b601081166135e7575b602081166135cb575b604081166135af575b60808116613593575b6101008116613577575b610200811661355b575b610400811661353f575b6108008116613523575b6110008116613507575b61200081166134eb575b61400081166134cf575b61800081166134b3575b620100008116613497575b62020000811661347c575b620400008116613461575b6208000016613448575b5f12613440575b0160201c90565b5f1904613439565b6b048a170391f7dc42444e8fa290910260801c90613432565b6d2216e584f5fa1ea926041bedfe9890920260801c91613428565b916e5d6af8dedb81196699c329225ee6040260801c9161341d565b916f09aa508b5b7a84e1c677de54f3e99bc90260801c91613412565b916f31be135f97d08fd981231505542fcfa60260801c91613407565b916f70d869a156d2a1b890bb3df62baf32f70260801c916133fd565b916fa9f746462d870fdf8a65dc1f90e061e50260801c916133f3565b916fd097f3bdfd2022b8845ad8f792aa58250260801c916133e9565b916fe7159475a2c29b7443b29c7fa6e889d90260801c916133df565b916ff3392b0822b70005940c7a398e4b70f30260801c916133d5565b916ff987a7253ac413176f2b074cf7815e540260801c916133cb565b916ffcbe86c7900a88aedcffc83b479aa3a40260801c916133c1565b916ffe5dee046a99a2a811c461f1969c30530260801c916133b7565b916fff2ea16466c96a3843ec78b326b528610260801c916133ae565b916fff973b41fa98c081472e6896dfb254c00260801c916133a5565b916fffcb9843d60f6159c9db58835c9266440260801c9161339c565b916fffe5caca7e10e4e61c3624eaa0941cd00260801c91613393565b916ffff2e50f5f656932ef12357cf3c7fdcc0260801c9161338a565b916ffff97272373d413259a46990580e213a0260801c91613381565b82613f3f565b6133298161330f565b936001600160a01b0383166001600160a01b038316116136fe575b6001600160a01b038581169590831686116136a25750506105fe9350613f9d565b92909391946001600160a01b038216115f146136f25782916136c8916136ce9594613f9d565b93613f6d565b6001600160801b0381166001600160801b038316105f146136ed575090565b905090565b9150506105fe92613f6d565b909190613681565b92916001600160801b0390816040519361371f856103ba565b16835216602082015282516001600160a01b03169060208401916001600160a01b0361375561109a85516001600160a01b031690565b91161093606081019161377161376c845160020b90565b613320565b926137a7613788613783835160020b90565b61365d565b61379d613793610427565b96879060020b9052565b60020b6020860152565b86156138815782516001600160a01b0316945b871561386f57516001600160a01b0316905b604084015162ffffff16905160020b9060e08501516137f1906001600160a01b031690565b926137fa610408565b6001600160a01b0390981688526001600160a01b0316602088015262ffffff16604087015260020b60608601526001600160a01b0316608085015261383d61454a565b9560c0830151613853906001600160a01b031690565b60a0909301516001600160801b0316936105fe956004936146ec565b5082516001600160a01b0316906137cc565b84516001600160a01b0316946137ba565b92916001600160801b039081604051936138ab856103ba565b16835216602082015282516001600160a01b03169060208401916001600160a01b036138e161109a85516001600160a01b031690565b9116109360608101916138f861376c845160020b90565b9261390a613788613783835160020b90565b86156139e45782516001600160a01b0316945b87156139d257516001600160a01b0316905b604084015162ffffff16905160020b9060e0850151613954906001600160a01b031690565b9261395d610408565b6001600160a01b0390981688526001600160a01b0316602088015262ffffff16604087015260020b60608601526001600160a01b031660808501526139a061454a565b9560c08301516139b6906001600160a01b031690565b60a0909301516001600160801b0316936105fe956005936146ec565b5082516001600160a01b03169061392f565b84516001600160a01b03169461391d565b613a3795929491936001600160801b038316159391929184613a3b575050915b6001600160801b0360405193613a2a856103ba565b1683526020830152613fe6565b9091565b613a4592506118d7565b91613a15565b6001600160801b0360208201511690816001600160801b038416119081613a77575b50156136ed575090565b60c09150015115155f613a6d565b9091906001600160a01b038116613ab257505f808080613aa694865af11590565b613aad5750565b614406565b91906001600160a01b036040519263a9059cbb60e01b845216600483015260248201525f604060208260448582885af13d15601f3d11600185511416171692828152826020820152015215613b045750565b6001600160a01b0316614383565b906001600160801b03809116911601906001600160801b0382116114a657565b6001600160801b0360408201511680151580613b75575b15613b64576001600160801b0360606105fe93015116613b12565b50606001516001600160801b031690565b5060c08201511515613b49565b5f806105fe93602081519101845af4613b996114ee565b91614482565b1561027a57565b908160c01b905f19600160c01b8409928280851094039380850394613bcc868511613b9f565b14613c2a57600160c01b82910981805f03168092046002816003021880820260020302808202600203028082026002030280820260020302808202600203028091026002030293600183805f03040190848311900302920304170290565b5091500490565b81810291905f1982820991838084109303928084039384600160c01b111561027a5714613c7157600160c01b910990828211900360401b910360c01c1790565b50505060c01c90565b908160601b905f19600160601b8409928280851094039380850394613ca0868511613b9f565b14613c2a57600160601b82910981805f03168092046002816003021880820260020302808202600203028082026002030280820260020302808202600203028091026002030293600183805f03040190848311900302920304170290565b81810291905f1982820991838084109303928084039384600160601b111561027a5714613d3e57600160601b910990828211900360a01b910360601c1790565b50505060601c90565b91818302915f19818509938380861095039480860395613d68878611613b9f565b14613dc2579082910981805f03168092046002816003021880820260020302808202600203028082026002030280820260020302808202600203028091026002030293600183805f03040190848311900302920304170290565b505091500490565b60018111156105fe57806001700100000000000000000000000000000000831015613efd575b613ea3613e99613e8f613e85613e7b613e71613e60613eaa9760048a68010000000000000000613eaf9c1015613ef0575b640100000000811015613ee3575b62010000811015613ed6575b610100811015613ec9575b6010811015613ebc575b1015613eb4575b60030260011c90565b613e6a818b613083565b0160011c90565b613e6a818a613083565b613e6a8189613083565b613e6a8188613083565b613e6a8187613083565b613e6a8186613083565b8093613083565b821190565b900390565b60011b613e57565b60041c9160021b91613e50565b60081c9160041b91613e46565b60101c9160081b91613e3b565b60201c9160101b91613e2f565b60401c9160201b91613e21565b5050613eaf613eaa613ea3613e99613e8f613e85613e7b613e71613e60613f248a60801c90565b9850680100000000000000009750613df09650505050505050565b7f8b86327a000000000000000000000000000000000000000000000000000000005f5260020b60045260245ffd5b916001600160a01b036105fe93613f929382811683831611613f97575b031690613c7a565b61450e565b90613f8a565b91613f92916105fe936001600160a01b0382166001600160a01b03821611613fe0575b6001600160a01b0390613fd7828416838316613cfe565b92031691613d47565b90613fc0565b9392919091613ffc85516001600160a01b031690565b9060208601916001600160a01b0361401e61109a85516001600160a01b031690565b911610602085016140376140328251151590565b151590565b820361429b5761406261405460808a01516001600160a01b031690565b60608a015160020b90614948565b905b815160020b1580614283575b614270576140e49061408c60808b01516001600160a01b031690565b61409a6127e8855160020b90565b916140b96140326140b26127e8602089015160020b90565b9251151590565b861492831561425f575f935b15614250576001600160801b03806128298d516001600160801b031690565b946001600160801b0386161580156141e2575b6141cf5782156141be5788516001600160a01b0316945b83156141ad57516001600160a01b03165b60408a015162ffffff1660608b015160020b9060e08c0151614147906001600160a01b031690565b92614150610408565b6001600160a01b0390991689526001600160a01b0316602089015262ffffff16604088015260020b60608701526001600160a01b03166080860152614194906149db565b60c0909801516001600160a01b0316936105fe96614ade565b5088516001600160a01b031661411f565b84516001600160a01b03169461410e565b975050509150506105fe91506004815290565b50886001600160801b0361424861067961421d60606142148c61420f60a08901516001600160801b031690565b613b12565b95015160020b90565b60019060020b5f81620d89e719071281620d89e719050390620d89e80503016001600160801b030490565b9116116140f7565b6001600160801b03805f612829565b8a516001600160801b0316936140c5565b505050919450506105fe91506004815290565b506142956127e2602084015160020b90565b15614070565b6142c06142b260808a01516001600160a01b031690565b60608a015160020b906148a7565b90614064565b916105fe91602094936001600160a01b03815116906143376001888301936001600160a01b038551161194896040519a8b928051918291018385015e8201017f110000000000000000000000000000000000000000000000000000000000000081520301601f1981018952886103d6565b82156143725780516001600160a01b0316925b156143615750516001600160a01b03165b90614b8e565b516001600160a01b0316905061435b565b81516001600160a01b03169261434a565b601f19601f3d01166001600160a01b03604051926390bfb86560e01b845216600483015263a9059cbb60e01b6024830152608060448301528060a00160648301523d60848301523d5f60a484013e7ff27f64e40000000000000000000000000000000000000000000000000000000060c4828401600460a4820152015260e40190fd5b601f19601f3d01166001600160a01b03604051926390bfb86560e01b84521660048301525f6024830152608060448301528060a00160648301523d60848301523d5f60a484013e7ff4b3b1bc0000000000000000000000000000000000000000000000000000000060c4828401600460a4820152015260e40190fd5b906144bf575080511561449757602081519101fd5b7fd6bda275000000000000000000000000000000000000000000000000000000005f5260045ffd5b81511580614505575b6144d0575090565b6001600160a01b03907f9996b315000000000000000000000000000000000000000000000000000000005f521660045260245ffd5b50803b156144c8565b906001600160801b03821680920361452257565b7f93dafdf1000000000000000000000000000000000000000000000000000000005f5260045ffd5b604051600160f91b6020820152600b60f81b6021820152600b60f81b6022820152600381526105fe6023826103d6565b67ffffffffffffffff81116103615760051b60200190565b9061459c8261457a565b6145a960405191826103d6565b82815280926145ba601f199161457a565b01905f5b8281106145ca57505050565b8060606020809385010152016145be565b604051906145ea6020836103d6565b5f808352366020840137565b946001600160801b039290836001600160a01b03966105fe9b9a96829461465e8b6101809d986001600160a01b036080809282815116855282602082015116602086015262ffffff6040820151166040860152606081015160020b6060860152015116910152565b60020b60a08b015260020b60c08a01521660e0880152166101008601521661012084015216610140820152816101608201520190610d94565b8051156146a45760200190565b634e487b7160e01b5f52603260045260245ffd5b8051600110156146a45760400190565b8051600210156146a45760600190565b80518210156146a45760209160051b010190565b95919293949094600481141580614884575b61485957936147786147f394612c50602095612c5099956147216148209a614592565b9b861561484857808901516001600160801b0316965b1561483757516001600160801b03165b61475f89614756875160020b90565b96015160020b90565b966147686145db565b936040519889978b8d8a016145f6565b61478187614697565b5261478b86614697565b50612c506147d16147a383516001600160a01b031690565b60405192839186830160405f919392936001600160a01b036060820195168152600160ff1b60208201520152565b6147da876146b8565b526147e4866146b8565b5001516001600160a01b031690565b604080516001600160a01b039092166020830152600160ff1b908201525f60608201529182906080820190565b614829826146c8565b52614833816146c8565b5090565b8801516001600160801b0316614747565b80516001600160801b031696614737565b7f1e1a3c5b000000000000000000000000000000000000000000000000000000005f5260045260245ffd5b5060058114156146fe565b6040519061489c826103ba565b5f6020838281520152565b6148b86148b261488f565b91614bfd565b908160020b620d89e803627fffff8113627fffff198212176114a6578360020b9060020b1315614942575080826148f2816105fe94614e65565b915f600284900b12614936570160020b0360020b915b6149118161330f565b0260020b61492c60405193614925856103ba565b60020b8452565b60020b6020830152565b90500360020b91614908565b91505090565b9061495a61495461488f565b92614bfd565b91620d89e88360020b01627fffff8113627fffff198212176114a6578260020b9060020b12614942575080806149926105fe936132fd565b0260020b926149a18282614e65565b915f600284900b126149cc57500360020b5b604051926149c0846103ba565b835260020b6020830152565b91900360020b0360020b6149b3565b6003815103614a16576105fe6001602092836040519485928051918291018385015e820101600160f91b81520301601f1981018352826103d6565b517f23b1c14e000000000000000000000000000000000000000000000000000000005f5260045260245ffd5b94906001600160a01b03946105fe9998946101809894614aa7896001600160801b03956001600160a01b036080809282815116855282602082015116602086015262ffffff6040820151166040860152606081015160020b6060860152015116910152565b60020b60a089015260020b60c08801521660e086015261010085015261012084015216610140820152816101608201520190610d94565b919395949286516005810361485957509282614b5e95926001600160801b039795614b126140326020612c50980151151590565b90151514918215614b7d575f925b15614b7557516001600160801b0316955b614b416020614756875160020b90565b614b496145db565b958a6040519b8c9a1695169360208a01614a42565b614b696003836146d8565b526148336003826146d8565b505f95614b31565b80516001600160801b031692614b20565b908251600481141580614bf2575b61485957506001600160a01b0390816040519316602084015216604082015230606082015260608152614bd06080826103d6565b81515f1981019081116114a65761483391614beb82856146d8565b52826146d8565b506005811415614b9c565b73fffd8963efd1fc6a506488495d951d51639616826401000276a21982016001600160a01b031611614e60576001600160a01b0316614c3c8160201b90565b80614c4f614c4983614eac565b60ff1690565b9160808310614e535750607e1982011c905b607f190160401b90800280607f1c8160ff1c1c800280607f1c8160ff1c1c800280607f1c8160ff1c1c800280607f1c8160ff1c1c800280607f1c8160ff1c1c800280607f1c8160ff1c1c80029081607f1c8260ff1c1c80029283607f1c8460ff1c1c80029485607f1c8660ff1c1c80029687607f1c8860ff1c1c80029889607f1c8a60ff1c1c80029a8b607f1c8c60ff1c1c80029c8d80607f1c9060ff1c1c800260cd1c6604000000000000169d60cc1c6608000000000000169c60cb1c6610000000000000169b60ca1c6620000000000000169a60c91c6640000000000000169960c81c6680000000000000169860c71c670100000000000000169760c61c670200000000000000169660c51c670400000000000000169560c41c670800000000000000169460c31c671000000000000000169360c21c672000000000000000169260c11c674000000000000000169160c01c678000000000000000161717171717171717171717171717693627a301d71055774c85027ffffffffffffffffffffffffffffffffffd709b7e5480fba5a50fed5e62ffc5568101614e069060801d90565b60020b906fdb2df09e81959a81455e260799a0632f0160801d60020b918260020b8260020b145f14614e385750905090565b6001600160a01b03614e4984613330565b16116136ed575090565b905081607f031b90614c61565b614e77565b9060020b9081156117ac5760020b0790565b6001600160a01b03907f61487524000000000000000000000000000000000000000000000000000000005f521660045260245ffd5b801561027a577f07060605060205000602030205040001060502050303040105050304000000006f8421084210842108cc6318c6db6d54be826001600160801b031060071b83811c67ffffffffffffffff1060061b1783811c63ffffffff1060051b1783811c61ffff1060041b1783811c60ff1060031b1792831c1c601f161a179056fea264697066735822122031c3262f98f2f0f5c7aef2b00883d4dfdaf835e25bb24fd2fa69fd2306acd49464736f6c634300081a0033",
  "deployedBytecode": "0x6080604052600436101561001a575b3615610018575f80fd5b005b5f3560e01c806301ffc9a7146101d95780630448e51a146101d45780630d0c23bf146101cf578063150b7a02146101ca578063248a9ca3146101c55780632f2ff15d146101c057806336568abe146101bb5780633e6ca284146101b65780634e6fd6c4146101b15780634f1ef286146101ac57806352d1902d146101a7578063607d4c2a146101a2578063688e69561461019d578063690d8320146101985780637381527f14610193578063791b98bc1461018e5780638b8eeeeb1461018957806391d1485414610184578063a217fddf1461017f578063a9e529871461017a578063ad3cb1cc14610175578063c0c53b8b14610170578063ce5494bb1461016b578063d11cb64914610166578063d547741f14610161578063dd1b9c4a1461015c578063e794ba51146101575763eb2a5d2c0361000e5761141d565b611344565b611329565b6112c9565b6111df565b611050565b610e17565b610db8565b610d73565b610d59565b610ce7565b610cc1565b610c9b565b610c80565b610bf6565b610bd0565b610bb5565b610b4b565b61096d565b610951565b610936565b6108cb565b610866565b610814565b610786565b610601565b61029c565b3461027a57602036600319011261027a576004357fffffffff00000000000000000000000000000000000000000000000000000000811680910361027a57807f7965db0b0000000000000000000000000000000000000000000000000000000060209214908115610250575b506040519015158152f35b7f01ffc9a7000000000000000000000000000000000000000000000000000000009150145f610245565b5f80fd5b6001600160a01b0381160361027a57565b359061029a8261027e565b565b3461027a57602036600319011261027a576001600160a01b036004356102c18161027e565b165f908152602081815260409182902080546001820154600283015460039093015485516001600160a01b039384168152918316948201949094529116928101929092526001600160801b038116606083015267ffffffffffffffff608091821c169082015260a090f35b0390f35b634e487b7160e01b5f52604160045260245ffd5b610100810190811067ffffffffffffffff82111761036157604052565b610330565b6060810190811067ffffffffffffffff82111761036157604052565b60a0810190811067ffffffffffffffff82111761036157604052565b60c0810190811067ffffffffffffffff82111761036157604052565b6040810190811067ffffffffffffffff82111761036157604052565b90601f8019910116810190811067ffffffffffffffff82111761036157604052565b6040519061029a610160836103d6565b6040519061029a60a0836103d6565b6040519061029a610100836103d6565b6040519061029a6040836103d6565b8060020b0361027a57565b359061029a82610436565b67ffffffffffffffff81160361027a57565b359061029a8261044c565b35906001600160801b038216820361027a57565b61010090604319011261027a576040519061049782610344565b816104a2604461028f565b81526104ae6064610441565b60208201526104bd608461045e565b60408201526104cc60a461045e565b60608201526104db60c461045e565b608082015260e43560a08201526104f3610104610469565b60c082015260e0610505610124610469565b910152565b61010090602319011261027a576040519061052482610344565b8161052f602461028f565b815261053b6044610441565b602082015261054a606461045e565b6040820152610559608461045e565b606082015261056860a461045e565b608082015260c43560a082015261057f60e4610469565b60c082015260e0610505610104610469565b67ffffffffffffffff811161036157601f01601f191660200190565b9291926105b982610591565b916105c760405193846103d6565b82948184528183011161027a578281602093845f960137010152565b9080601f8301121561027a578160206105fe933591016105ad565b90565b61018036600319011261027a5760043561061a8161027e565b6024356106263661047d565b91610164356101443567ffffffffffffffff821161027a57602061068b6106546106d19436906004016105e3565b95610662600254341461143a565b61068561067960e08a01516001600160801b031690565b6001600160801b031690565b90611499565b6040517f23b872dd000000000000000000000000000000000000000000000000000000008152336004820152306024820152604481019190915292839081906064820190565b03815f6001600160a01b0388165af19081156107815761032c957f20cc45d5c7c8916ce9fd33f096614497e0b2897d9ab503926afa411527c96c34946107379461072094610754575b50611ab2565b926040519182916001600160a01b038616836114ce565b0390a16040516001600160a01b0390911681529081906020820190565b6107759060203d60201161077a575b61076d81836103d6565b8101906114ab565b61071a565b503d610763565b6114c3565b3461027a57608036600319011261027a576107a260043561027e565b6107ad60243561027e565b60643567ffffffffffffffff811161027a573660238201121561027a57806004013567ffffffffffffffff811161027a573691016024011161027a576040517f150b7a02000000000000000000000000000000000000000000000000000000008152602090f35b3461027a57602036600319011261027a57602061085e6004355f527f02dd7bc7dec4dceedda775e58dd541e08a116c6c53815c0bd028192f7b626800602052600160405f20015490565b604051908152f35b3461027a57604036600319011261027a576100186024356004356108898261027e565b6108c66108c1825f527f02dd7bc7dec4dceedda775e58dd541e08a116c6c53815c0bd028192f7b626800602052600160405f20015490565b611f49565b612133565b3461027a57604036600319011261027a576004356024356108eb8161027e565b336001600160a01b03821603610904576100189161220b565b7f6697b232000000000000000000000000000000000000000000000000000000005f5260045ffd5b5f91031261027a57565b3461027a575f36600319011261027a57602060405160048152f35b3461027a575f36600319011261027a57602060405161dead8152f35b604036600319011261027a576004356109858161027e565b60243567ffffffffffffffff811161027a573660238201121561027a576109b69036906024816004013591016105ad565b906001600160a01b037f000000000000000000000000000000000000000000000000000000000000000016803014908115610b16575b50610aee576109f9611eda565b604051917f52d1902d0000000000000000000000000000000000000000000000000000000083526020836004816001600160a01b0386165afa5f9381610abd575b50610a5e57634c9c8ce360e01b5f526001600160a01b03821660045260245ffd5b5ffd5b907f360894a13ba1a3210667c828492db98dca3e2076cc3735a920a3ca505d382bbc8303610a90576100189250612ed3565b7faa1d49a4000000000000000000000000000000000000000000000000000000005f52600483905260245ffd5b610ae091945060203d602011610ae7575b610ad881836103d6565b8101906118c8565b925f610a3a565b503d610ace565b7fe07c8dba000000000000000000000000000000000000000000000000000000005f5260045ffd5b90506001600160a01b037f360894a13ba1a3210667c828492db98dca3e2076cc3735a920a3ca505d382bbc541614155f6109ec565b3461027a575f36600319011261027a576001600160a01b037f0000000000000000000000000000000000000000000000000000000000000000163003610aee5760206040517f360894a13ba1a3210667c828492db98dca3e2076cc3735a920a3ca505d382bbc8152f35b3461027a575f36600319011261027a57602060405160058152f35b3461027a575f36600319011261027a5760206001600160a01b0360015416604051908152f35b3461027a57602036600319011261027a575f808080600435610c178161027e565b610c1f611eda565b6001600160a01b034791165af1610c346114ee565b5015610c3c57005b606460405162461bcd60e51b815260206004820152601260248201527f556e61626c6520746f20776974686472617700000000000000000000000000006044820152fd5b3461027a575f36600319011261027a57602060405160018152f35b3461027a575f36600319011261027a5760206001600160a01b0360045416604051908152f35b3461027a575f36600319011261027a5760206001600160a01b0360035416604051908152f35b3461027a57604036600319011261027a57602060ff610d4d602435600435610d0e8261027e565b5f527f02dd7bc7dec4dceedda775e58dd541e08a116c6c53815c0bd028192f7b626800845260405f20906001600160a01b03165f5260205260405f2090565b54166040519015158152f35b3461027a575f36600319011261027a5760206040515f8152f35b3461027a57602036600319011261027a57600435610d8f611eda565b600255005b805180835260209291819084018484015e5f828201840152601f01601f1916010190565b3461027a575f36600319011261027a5761032c604051610dd96040826103d6565b600581527f352e302e300000000000000000000000000000000000000000000000000000006020820152604051918291602083526020830190610d94565b3461027a57606036600319011261027a57600435610e348161027e565b60243590610e418261027e565b604435610e4d8161027e565b7ff0c57e16840df040f15088dc2f81fe391c3923bec73e23a9662efc9c229c6a00549267ffffffffffffffff610e9360ff604087901c16159567ffffffffffffffff1690565b1680159081611048575b600114908161103e575b159081611035575b5061100d57610f199284610f10600167ffffffffffffffff197ff0c57e16840df040f15088dc2f81fe391c3923bec73e23a9662efc9c229c6a005416177ff0c57e16840df040f15088dc2f81fe391c3923bec73e23a9662efc9c229c6a0055565b610fa85761151d565b610f1f57005b610f7468ff0000000000000000197ff0c57e16840df040f15088dc2f81fe391c3923bec73e23a9662efc9c229c6a0054167ff0c57e16840df040f15088dc2f81fe391c3923bec73e23a9662efc9c229c6a0055565b604051600181527fc7f505b2f371ae2175ee4913f4499e1f2633a7b5936321eed1cdaeb6115181d29080602081015b0390a1005b6110086801000000000000000068ff0000000000000000197ff0c57e16840df040f15088dc2f81fe391c3923bec73e23a9662efc9c229c6a005416177ff0c57e16840df040f15088dc2f81fe391c3923bec73e23a9662efc9c229c6a0055565b61151d565b7ff92ee8a9000000000000000000000000000000000000000000000000000000005f5260045ffd5b9050155f610eaf565b303b159150610ea7565b859150610e9d565b3461027a57602036600319011261027a5760043561106d8161027e565b6110a661109a61108d836001600160a01b03165f525f60205260405f2090565b546001600160a01b031690565b6001600160a01b031690565b90813b1561027a576040517f7c1215740000000000000000000000000000000000000000000000000000000081525f8160048183875af18015610781576111cb575b50813b1561027a575f80926004604051809581937f5dd13ca70000000000000000000000000000000000000000000000000000000083525af1918215610781577f95cb306ff00e5e11a80ded9ef46c964545cdfb5c889f7f6a0711669d129f120f926111b1575b50611159816123de565b6111a161116582612659565b61119461118261117c83516001600160a01b031690565b85612925565b938261118e8183612ad4565b91612cb0565b516001600160a01b031690565b90610fa360405192839283611591565b806111bf5f6111c5936103d6565b8061092c565b5f61114f565b806111bf5f6111d9936103d6565b5f6110e8565b61016036600319011261027a5760043567ffffffffffffffff811161027a576060600319823603011261027a576040519061121982610366565b806004013567ffffffffffffffff811161027a5761123d90600436918401016105e3565b825260248101359067ffffffffffffffff821161027a57611266604492600436918401016105e3565b60208401520135604082015261127b3661050a565b9061014435906101243567ffffffffffffffff831161027a5761032c936112a96112af9436906004016105e3565b92611664565b6040516001600160a01b0390911681529081906020820190565b3461027a57604036600319011261027a576100186024356004356112ec8261027e565b6113246108c1825f527f02dd7bc7dec4dceedda775e58dd541e08a116c6c53815c0bd028192f7b626800602052600160405f20015490565b61220b565b3461027a575f36600319011261027a57602060405160648152f35b3461027a57604036600319011261027a576004356113618161027e565b60243567ffffffffffffffff811161027a576113819036906004016105e3565b6001600160a01b0382165f525f6020526001600160a01b03600160405f2001541633036113d9577f20cc45d5c7c8916ce9fd33f096614497e0b2897d9ab503926afa411527c96c3491610fa3604051928392836114ce565b606460405162461bcd60e51b815260206004820152600c60248201527f756e617574686f72697a656400000000000000000000000000000000000000006044820152fd5b3461027a575f36600319011261027a576020600254604051908152f35b1561144157565b606460405162461bcd60e51b815260206004820152600b60248201527f696e76616c6964206665650000000000000000000000000000000000000000006044820152fd5b634e487b7160e01b5f52601160045260245ffd5b919082018092116114a657565b611485565b9081602091031261027a5751801515810361027a5790565b6040513d5f823e3d90fd5b6040906001600160a01b036105fe94931681528160208201520190610d94565b3d15611518573d906114ff82610591565b9161150d60405193846103d6565b82523d5f602084013e565b606090565b6001600160a01b039291838092611532612fb6565b61153a612fb6565b61154333611fb0565b5061154d3361205f565b50166001600160a01b03196004541617600455166001600160a01b03196003541617600355166001600160a01b0319600154161760015566038d7ea4c68000600255565b9092916001600160a01b0360a0916115ea8460c08101976001600160a01b036080809282815116855282602082015116602086015262ffffff6040820151166040860152606081015160020b6060860152015116910152565b16910152565b9081602091031261027a57516105fe8161027e565b906060926001600160a01b0380929796959716835260806020840152604061165161163b835187608088015260e0870190610d94565b6020840151868203607f190160a0880152610d94565b91015160c0840152951660408201520152565b91602081929395949561167a600254341461143a565b6003546001600160a01b0316906116c060405194859384937fd32d8ada000000000000000000000000000000000000000000000000000000008552309160048601611605565b038173__$18b25716b22c6633cace6bc710d90e68ec$__5af4918215610781577f20cc45d5c7c8916ce9fd33f096614497e0b2897d9ab503926afa411527c96c349361172d93611716935f916117325750611ab2565b936040519182916001600160a01b038716836114ce565b0390a1565b611754915060203d60201161175a575b61174c81836103d6565b8101906115f0565b5f61071a565b503d611742565b9067ffffffffffffffff8091169116039067ffffffffffffffff82116114a657565b634e487b7160e01b5f52601260045260245ffd5b64ffffffffff1680156117ac57629896800490565b611783565b6101806101406105fe93602084526117d56020850182516001600160a01b03169052565b60208101516001600160a01b0316604085015260408101516001600160a01b03166060850152606081015167ffffffffffffffff166080850152608081015167ffffffffffffffff1660a085015260a081015167ffffffffffffffff1660c085015260c081015160020b60e085015260e08101516001600160a01b031661010085015261010081015161012085015261187e610120820151838601906001600160801b03169052565b015191610160808201520190610d94565b9493926001600160801b036060936001600160a01b036118c394168852166020870152608060408701526080860190610d94565b930152565b9081602091031261027a575190565b906001600160801b03809116911603906001600160801b0382116114a657565b6080600367ffffffffffffffff9261192f6001600160a01b0386511682906001600160a01b03166001600160a01b0319825416179055565b61195f6001600160a01b0360208701511660018301906001600160a01b03166001600160a01b0319825416179055565b61198f6001600160a01b0360408701511660028301906001600160a01b03166001600160a01b0319825416179055565b01926001600160801b036060820151167fffffffffffffffffffffffffffffffff000000000000000000000000000000008554161784550151167fffffffffffffffff0000000000000000ffffffffffffffffffffffffffffffff77ffffffffffffffff0000000000000000000000000000000083549260801b169116179055565b61029a9092919260e0806101008301956001600160a01b038151168452602081015160020b602085015267ffffffffffffffff6040820151166040850152611a6a6060820151606086019067ffffffffffffffff169052565b60808181015167ffffffffffffffff169085015260a081015160a0850152611aa260c082015160c08601906001600160801b03169052565b01516001600160801b0316910152565b9291606082018051611acb9067ffffffffffffffff1690565b9160408401928351611ae49067ffffffffffffffff1690565b611aed91611761565b64ffffffffff1684516001600160a01b0316935167ffffffffffffffff16835167ffffffffffffffff16608087015167ffffffffffffffff16602088015160020b9060a08901519260c08a0151611b4a906001600160801b031690565b94611b5487611797565b60405160e89190911b7fffffff000000000000000000000000000000000000000000000000000000000016602082015260d89790971b7fffffffffff00000000000000000000000000000000000000000000000000000016602388015260088752611bc06028886103d6565b611bc86103f8565b6001600160a01b03909a168a52600160208b0152600160408b015267ffffffffffffffff1660608a015267ffffffffffffffff16608089015267ffffffffffffffff1660a088015260020b60c08701525f60e08701526101008601526001600160801b03166101208501526101408401526001546001600160a01b03166001600160a01b03166001600160a01b031660e08501938451611c6e906001600160801b031690565b60405180926020820190611c81916117b1565b03601f1981018352611c9390836103d6565b8860405194859384937f037705040000000000000000000000000000000000000000000000000000000085526004850193611ccd9461188f565b03815a6020945f91f18015610781576001600160a01b03915f91611ebb575b501694611d0084516001600160a01b031690565b6040516370a0823160e01b81523060048201526001600160a01b038316949091602083602481895afa801561078157611de8611dfa95611dd2611ded94611dc1611e019a8f96611d80611d71611db1928c6106799e5f92611e8d575b50516001600160801b039081165b91166118d7565b925167ffffffffffffffff1690565b93611d9b611d8c610408565b6001600160a01b03909a168a52565b3360208a01526001600160a01b03166040890152565b6001600160801b03166060870152565b67ffffffffffffffff166080850152565b6001600160a01b03165f525f60205260405f2090565b6118f7565b516001600160801b031690565b8583612e34565b833b1561027a576040517f331f2f650000000000000000000000000000000000000000000000000000000081525f8160048183895af1801561078157611e79575b50837f50b82f2f46e4e235c8ba31a1c009e3d0cbbff4fe9e695c6e84270d626b5e2e1a60405180611e74339682611a11565b0390a4565b806111bf5f611e87936103d6565b5f611e42565b6001600160801b03919250611eb3611d6a9160203d602011610ae757610ad881836103d6565b929150611d5c565b611ed4915060203d60201161175a5761174c81836103d6565b5f611cec565b335f9081527fb16e88c42fd4e48df2dd6a2eabd6bc9aec654ec170056b470819f8892cc6431c602052604090205460ff1615611f1257565b63e2517d3f60e01b5f52336004527fa49807205ce4d355092ef5a8a18f56e8913cf4a201fbe287825b095693c2177560245260445ffd5b805f527f02dd7bc7dec4dceedda775e58dd541e08a116c6c53815c0bd028192f7b62680060205260ff611f903360405f20906001600160a01b03165f5260205260405f2090565b541615611f9a5750565b63e2517d3f60e01b5f523360045260245260445ffd5b6001600160a01b0381165f9081527fb7db2dd08fcb62d0c9e08c51941cae53c267786a0b75803fb7960902fc8ef97d602052604090205460ff1661205a576001600160a01b03165f8181527fb7db2dd08fcb62d0c9e08c51941cae53c267786a0b75803fb7960902fc8ef97d60205260408120805460ff191660011790553391907f2f8788117e7eff1d82e926ec794901d17c78024a50270940304540a733656f0d8180a4600190565b505f90565b6001600160a01b0381165f9081527fb16e88c42fd4e48df2dd6a2eabd6bc9aec654ec170056b470819f8892cc6431c602052604090205460ff1661205a576001600160a01b0381165f9081527fb16e88c42fd4e48df2dd6a2eabd6bc9aec654ec170056b470819f8892cc6431c60205260409020805460ff1916600117905533906001600160a01b03167fa49807205ce4d355092ef5a8a18f56e8913cf4a201fbe287825b095693c217757f2f8788117e7eff1d82e926ec794901d17c78024a50270940304540a733656f0d5f80a4600190565b805f527f02dd7bc7dec4dceedda775e58dd541e08a116c6c53815c0bd028192f7b62680060205260ff61217a8360405f20906001600160a01b03165f5260205260405f2090565b541661220557805f527f02dd7bc7dec4dceedda775e58dd541e08a116c6c53815c0bd028192f7b6268006020526121c58260405f20906001600160a01b03165f5260205260405f2090565b805460ff1916600117905533916001600160a01b0316907f2f8788117e7eff1d82e926ec794901d17c78024a50270940304540a733656f0d5f80a4600190565b50505f90565b805f527f02dd7bc7dec4dceedda775e58dd541e08a116c6c53815c0bd028192f7b62680060205260ff6122528360405f20906001600160a01b03165f5260205260405f2090565b54161561220557805f527f02dd7bc7dec4dceedda775e58dd541e08a116c6c53815c0bd028192f7b62680060205261229e8260405f20906001600160a01b03165f5260205260405f2090565b805460ff1916905533916001600160a01b0316907ff6391f5c32d9c69d2a47ea670b442974b53935d1edc7fd64eb21e047a839171b5f80a4600190565b906040516122e881610382565b608067ffffffffffffffff80600384966001600160a01b0381541686526001600160a01b0360018201541660208701526001600160a01b03600282015416604087015201546001600160801b0381166060860152831c1616910152565b67ffffffffffffffff60019116019067ffffffffffffffff82116114a657565b519061029a8261044c565b908160c091031261027a57604051906123888261039e565b805182526020810151602083015260408101516040830152606081015162ffffff8116810361027a576123d69160a091606085015260808101516123cb8161044c565b608085015201612365565b60a082015290565b6123fb612400916001600160a01b03165f525f60205260405f2090565b6122db565b80516001600160a01b031661244c61243f61243a608061242a60408701516001600160a01b031690565b95015167ffffffffffffffff1690565b612345565b67ffffffffffffffff1690565b8043106125e357506001600160a01b031690604051917fc2c4c5c100000000000000000000000000000000000000000000000000000000835260c0836004815f855af1908115610781576004936020926125b6575b5060405193848092632662e93f60e21b82525afa918215610781575f92612595575b506001600160801b03821161255d578115612535576001600160a01b0316816124ec308361300d565b106124f5575050565b90612504610a5b92309061300d565b907f2bcaebd3000000000000000000000000000000000000000000000000000000005f529190604492600452602452565b7f21de4606000000000000000000000000000000000000000000000000000000005f5260045ffd5b7f4defa317000000000000000000000000000000000000000000000000000000005f5260048290526001600160801b0360245260445ffd5b6125af91925060203d602011610ae757610ad881836103d6565b905f6124c3565b6125d79060c03d60c0116125dc575b6125cf81836103d6565b810190612370565b6124a1565b503d6125c5565b7fa06fc0c9000000000000000000000000000000000000000000000000000000005f526004524360245260445ffd5b6040519060e0820182811067ffffffffffffffff821117610361576040525f60c0838281528260208201528260408201528260608201528260808201528260a08201520152565b612661612612565b9061267f6123fb826001600160a01b03165f525f60205260405f2090565b9061269182516001600160a01b031690565b6001600160a01b036126c160606126b260408701516001600160a01b031690565b9501516001600160801b031690565b911660405190632662e93f60e21b8252602082600481845afa908115610781576004925f926128c4575b50602090604051938480927f32a0f2d70000000000000000000000000000000000000000000000000000000082525afa9081156107815786611ded61283261276e6127bd6127ca61278f8a61284299610679996105fe9f8a9f6001600160801b039e5f94612894575b50906001600160a01b038f9281169116109788809461308d565b9161278861277b8461319b565b6001600160a01b03168d52565b169061322c565b93906127b06060604060208c019b019f019586906001600160801b03169052565b6001600160801b03168d52565b6001600160801b03168652565b8b516001600160a01b0316906127ed6127e8620d89e7195b60020b90565b613330565b6127fc6127e8620d89e86127e2565b9184156128835780516001600160801b0316945b1561286b5750898061282989516001600160801b031690565b16941692613666565b6001600160801b031660808a0152565b911611908115612857575b50151560a0830152565b516001600160801b0316151590505f61284d565b8a61287e8192516001600160801b031690565b612829565b87516001600160801b031694612810565b8f929194506001600160a01b036128ba819260203d602011610ae757610ad881836103d6565b9592935050612754565b60209192506128df90823d8411610ae757610ad881836103d6565b91906126eb565b604051906128f382610382565b5f6080838281528260208201528260408201528260608201520152565b9081602091031261027a57516105fe81610436565b91906020612a18916129356128e6565b506129b76001600160a01b0361297160406129636123fb8a6001600160a01b03165f525f60205260405f2090565b01516001600160a01b031690565b8188168282161097908815612a5b5780985b15612a5457505b6129a782612996610408565b991689906001600160a01b03169052565b166001600160a01b031683870152565b60646040860152600160608601525f6080860152846129e161109a6004546001600160a01b031690565b905f6040518096819582947ff702040500000000000000000000000000000000000000000000000000000000845260048401611591565b03925af1801561078157612a295750565b612a4a9060203d602011612a4d575b612a4281836103d6565b810190612910565b50565b503d612a38565b905061298a565b8198612983565b90612a7590604083526040830190610d94565b906020818303910152815180825260208201916020808360051b8301019401925f915b838310612aa757505050505090565b9091929394602080612ac5600193601f198682030187528951610d94565b97019301930191939290612a98565b6105fe91612c3c91612af96123fb826001600160a01b03165f525f60205260405f2090565b90612baa612b256060612b1660408601516001600160a01b031690565b9401516001600160801b031690565b91612b9a612b3a86516001600160a01b031690565b612b7c612b5160808901516001600160801b031690565b93612b6c612b5d610417565b6001600160a01b039099168952565b6001600160a01b03166020880152565b60646040870152600160608701526001600160a01b03166080860152565b6001600160801b031660a0840152565b61dead60c08301525f60e083015260a083015115612c5e5790612c26612c379260208501612c0a612bfa612be583516001600160801b031690565b60608901516001600160801b03169087613892565b919092516001600160801b031690565b90612c1f60408901516001600160801b031690565b92866139f5565b805160051460c09095019490945291565b6142c6565b9190612c5060405193849260208401612a62565b03601f1981018352826103d6565b509080612c8c6060612c7d6020612c939501516001600160801b031690565b9201516001600160801b031690565b9083613706565b916142c6565b9291906118c3602091604086526040860190610d94565b9190612d3c6001600160a01b0391612d37612cde6123fb876001600160a01b03165f525f60205260405f2090565b95612d10612d0a6060612cfb60408b01516001600160a01b031690565b9901516001600160801b031690565b84613a4b565b856001600160801b03612d2e61109a6004546001600160a01b031690565b92169216613a85565b613b32565b92166001600160a01b038116612db75750612d6261109a6004546001600160a01b031690565b803b1561027a576001600160801b03925f92612d969260405195868095819463dd46508f60e01b8352429060048401612c99565b039316905af1801561078157612da95750565b806111bf5f61029a936103d6565b612de191926001600160801b03612dd961109a6004546001600160a01b031690565b911691613a85565b612df661109a6004546001600160a01b031690565b803b1561027a57612e235f9291839260405194858094819363dd46508f60e01b8352429060048401612c99565b03925af1801561078157612da95750565b916020915f91604051906001600160a01b038583019363a9059cbb60e01b8552166024830152604482015260448152612e6e6064826103d6565b519082855af1156114c3575f513d612eca57506001600160a01b0381163b155b612e955750565b6001600160a01b03907f5274afe7000000000000000000000000000000000000000000000000000000005f521660045260245ffd5b60011415612e8e565b90813b15612f9a576001600160a01b038216806001600160a01b03197f360894a13ba1a3210667c828492db98dca3e2076cc3735a920a3ca505d382bbc5416177f360894a13ba1a3210667c828492db98dca3e2076cc3735a920a3ca505d382bbc557fbc7cd75a20ee27fd9adebab32041f755214dbc6bffa90cc0225b39da2e5c2d3b5f80a2805115612f6957612a4a91613b82565b505034612f7257565b7fb398979f000000000000000000000000000000000000000000000000000000005f5260045ffd5b6001600160a01b0382634c9c8ce360e01b5f521660045260245ffd5b60ff7ff0c57e16840df040f15088dc2f81fe391c3923bec73e23a9662efc9c229c6a005460401c1615612fe557565b7fd7e6bcf8000000000000000000000000000000000000000000000000000000005f5260045ffd5b6001600160a01b03811661302057503190565b906001600160a01b0360246020928260405195869485936370a0823160e01b8552166004840152165afa908115610781575f9161305b575090565b6105fe915060203d602011610ae757610ad881836103d6565b80156117ac57600160c01b0490565b81156117ac570490565b90811561316f5715613144576130a281613074565b60a01c61311b576130b96401000000008211613b9f565b80600160601b600160c01b0981805f03168092046002816003021880820260020302808202600203028082026002030280820260020302808202600203028091026002030291600181805f0304018215156401000000000302915f0304170290565b613127610a5b91613074565b6387ebe85d60e01b5f526004526001600160a01b03602452604490565b8060a01c6131525760601b90565b6387ebe85d60e01b5f526004526001600160a01b0360245260445ffd5b507fd173d09f000000000000000000000000000000000000000000000000000000005f5260045260245ffd5b6131ac6001600160a01b0391613dca565b166401000276a38110801561320f575b6131c35790565b7f6727b942000000000000000000000000000000000000000000000000000000005f526004526401000276a360245273fffd8963efd1fc6a506488495d951d5263988d2660445260645ffd5b5073fffd8963efd1fc6a506488495d951d5263988d2681116131bc565b909293915f90805f146132e45761324c6001600160801b03861684613c31565b915b6001600160801b03871692838111156132d1575050156132c3579061327291613ba6565b6001600160801b038111613298576001600160801b03613294911680936118d7565b9190565b7fff29cf0d000000000000000000000000000000000000000000000000000000005f5260045260245ffd5b6132cc91613c31565b613272565b6001600160801b03169650949392505050565b6132f7836001600160801b038716613ba6565b9161324e565b60020b80156117ac57620d89e7190590565b60020b80156117ac57620d89e80590565b613329816132fd565b0260020b90565b60020b908160ff1d82810118620d89e881116136575763ffffffff9192600182167001fffcb933bd6fad37aa2d162d1a5940010270010000000000000000000000000000000018916002811661363b575b6004811661361f575b60088116613603575b601081166135e7575b602081166135cb575b604081166135af575b60808116613593575b6101008116613577575b610200811661355b575b610400811661353f575b6108008116613523575b6110008116613507575b61200081166134eb575b61400081166134cf575b61800081166134b3575b620100008116613497575b62020000811661347c575b620400008116613461575b6208000016613448575b5f12613440575b0160201c90565b5f1904613439565b6b048a170391f7dc42444e8fa290910260801c90613432565b6d2216e584f5fa1ea926041bedfe9890920260801c91613428565b916e5d6af8dedb81196699c329225ee6040260801c9161341d565b916f09aa508b5b7a84e1c677de54f3e99bc90260801c91613412565b916f31be135f97d08fd981231505542fcfa60260801c91613407565b916f70d869a156d2a1b890bb3df62baf32f70260801c916133fd565b916fa9f746462d870fdf8a65dc1f90e061e50260801c916133f3565b916fd097f3bdfd2022b8845ad8f792aa58250260801c916133e9565b916fe7159475a2c29b7443b29c7fa6e889d90260801c916133df565b916ff3392b0822b70005940c7a398e4b70f30260801c916133d5565b916ff987a7253ac413176f2b074cf7815e540260801c916133cb565b916ffcbe86c7900a88aedcffc83b479aa3a40260801c916133c1565b916ffe5dee046a99a2a811c461f1969c30530260801c916133b7565b916fff2ea16466c96a3843ec78b326b528610260801c916133ae565b916fff973b41fa98c081472e6896dfb254c00260801c916133a5565b916fffcb9843d60f6159c9db58835c9266440260801c9161339c565b916fffe5caca7e10e4e61c3624eaa0941cd00260801c91613393565b916ffff2e50f5f656932ef12357cf3c7fdcc0260801c9161338a565b916ffff97272373d413259a46990580e213a0260801c91613381565b82613f3f565b6133298161330f565b936001600160a01b0383166001600160a01b038316116136fe575b6001600160a01b038581169590831686116136a25750506105fe9350613f9d565b92909391946001600160a01b038216115f146136f25782916136c8916136ce9594613f9d565b93613f6d565b6001600160801b0381166001600160801b038316105f146136ed575090565b905090565b9150506105fe92613f6d565b909190613681565b92916001600160801b0390816040519361371f856103ba565b16835216602082015282516001600160a01b03169060208401916001600160a01b0361375561109a85516001600160a01b031690565b91161093606081019161377161376c845160020b90565b613320565b926137a7613788613783835160020b90565b61365d565b61379d613793610427565b96879060020b9052565b60020b6020860152565b86156138815782516001600160a01b0316945b871561386f57516001600160a01b0316905b604084015162ffffff16905160020b9060e08501516137f1906001600160a01b031690565b926137fa610408565b6001600160a01b0390981688526001600160a01b0316602088015262ffffff16604087015260020b60608601526001600160a01b0316608085015261383d61454a565b9560c0830151613853906001600160a01b031690565b60a0909301516001600160801b0316936105fe956004936146ec565b5082516001600160a01b0316906137cc565b84516001600160a01b0316946137ba565b92916001600160801b039081604051936138ab856103ba565b16835216602082015282516001600160a01b03169060208401916001600160a01b036138e161109a85516001600160a01b031690565b9116109360608101916138f861376c845160020b90565b9261390a613788613783835160020b90565b86156139e45782516001600160a01b0316945b87156139d257516001600160a01b0316905b604084015162ffffff16905160020b9060e0850151613954906001600160a01b031690565b9261395d610408565b6001600160a01b0390981688526001600160a01b0316602088015262ffffff16604087015260020b60608601526001600160a01b031660808501526139a061454a565b9560c08301516139b6906001600160a01b031690565b60a0909301516001600160801b0316936105fe956005936146ec565b5082516001600160a01b03169061392f565b84516001600160a01b03169461391d565b613a3795929491936001600160801b038316159391929184613a3b575050915b6001600160801b0360405193613a2a856103ba565b1683526020830152613fe6565b9091565b613a4592506118d7565b91613a15565b6001600160801b0360208201511690816001600160801b038416119081613a77575b50156136ed575090565b60c09150015115155f613a6d565b9091906001600160a01b038116613ab257505f808080613aa694865af11590565b613aad5750565b614406565b91906001600160a01b036040519263a9059cbb60e01b845216600483015260248201525f604060208260448582885af13d15601f3d11600185511416171692828152826020820152015215613b045750565b6001600160a01b0316614383565b906001600160801b03809116911601906001600160801b0382116114a657565b6001600160801b0360408201511680151580613b75575b15613b64576001600160801b0360606105fe93015116613b12565b50606001516001600160801b031690565b5060c08201511515613b49565b5f806105fe93602081519101845af4613b996114ee565b91614482565b1561027a57565b908160c01b905f19600160c01b8409928280851094039380850394613bcc868511613b9f565b14613c2a57600160c01b82910981805f03168092046002816003021880820260020302808202600203028082026002030280820260020302808202600203028091026002030293600183805f03040190848311900302920304170290565b5091500490565b81810291905f1982820991838084109303928084039384600160c01b111561027a5714613c7157600160c01b910990828211900360401b910360c01c1790565b50505060c01c90565b908160601b905f19600160601b8409928280851094039380850394613ca0868511613b9f565b14613c2a57600160601b82910981805f03168092046002816003021880820260020302808202600203028082026002030280820260020302808202600203028091026002030293600183805f03040190848311900302920304170290565b81810291905f1982820991838084109303928084039384600160601b111561027a5714613d3e57600160601b910990828211900360a01b910360601c1790565b50505060601c90565b91818302915f19818509938380861095039480860395613d68878611613b9f565b14613dc2579082910981805f03168092046002816003021880820260020302808202600203028082026002030280820260020302808202600203028091026002030293600183805f03040190848311900302920304170290565b505091500490565b60018111156105fe57806001700100000000000000000000000000000000831015613efd575b613ea3613e99613e8f613e85613e7b613e71613e60613eaa9760048a68010000000000000000613eaf9c1015613ef0575b640100000000811015613ee3575b62010000811015613ed6575b610100811015613ec9575b6010811015613ebc575b1015613eb4575b60030260011c90565b613e6a818b613083565b0160011c90565b613e6a818a613083565b613e6a8189613083565b613e6a8188613083565b613e6a8187613083565b613e6a8186613083565b8093613083565b821190565b900390565b60011b613e57565b60041c9160021b91613e50565b60081c9160041b91613e46565b60101c9160081b91613e3b565b60201c9160101b91613e2f565b60401c9160201b91613e21565b5050613eaf613eaa613ea3613e99613e8f613e85613e7b613e71613e60613f248a60801c90565b9850680100000000000000009750613df09650505050505050565b7f8b86327a000000000000000000000000000000000000000000000000000000005f5260020b60045260245ffd5b916001600160a01b036105fe93613f929382811683831611613f97575b031690613c7a565b61450e565b90613f8a565b91613f92916105fe936001600160a01b0382166001600160a01b03821611613fe0575b6001600160a01b0390613fd7828416838316613cfe565b92031691613d47565b90613fc0565b9392919091613ffc85516001600160a01b031690565b9060208601916001600160a01b0361401e61109a85516001600160a01b031690565b911610602085016140376140328251151590565b151590565b820361429b5761406261405460808a01516001600160a01b031690565b60608a015160020b90614948565b905b815160020b1580614283575b614270576140e49061408c60808b01516001600160a01b031690565b61409a6127e8855160020b90565b916140b96140326140b26127e8602089015160020b90565b9251151590565b861492831561425f575f935b15614250576001600160801b03806128298d516001600160801b031690565b946001600160801b0386161580156141e2575b6141cf5782156141be5788516001600160a01b0316945b83156141ad57516001600160a01b03165b60408a015162ffffff1660608b015160020b9060e08c0151614147906001600160a01b031690565b92614150610408565b6001600160a01b0390991689526001600160a01b0316602089015262ffffff16604088015260020b60608701526001600160a01b03166080860152614194906149db565b60c0909801516001600160a01b0316936105fe96614ade565b5088516001600160a01b031661411f565b84516001600160a01b03169461410e565b975050509150506105fe91506004815290565b50886001600160801b0361424861067961421d60606142148c61420f60a08901516001600160801b031690565b613b12565b95015160020b90565b60019060020b5f81620d89e719071281620d89e719050390620d89e80503016001600160801b030490565b9116116140f7565b6001600160801b03805f612829565b8a516001600160801b0316936140c5565b505050919450506105fe91506004815290565b506142956127e2602084015160020b90565b15614070565b6142c06142b260808a01516001600160a01b031690565b60608a015160020b906148a7565b90614064565b916105fe91602094936001600160a01b03815116906143376001888301936001600160a01b038551161194896040519a8b928051918291018385015e8201017f110000000000000000000000000000000000000000000000000000000000000081520301601f1981018952886103d6565b82156143725780516001600160a01b0316925b156143615750516001600160a01b03165b90614b8e565b516001600160a01b0316905061435b565b81516001600160a01b03169261434a565b601f19601f3d01166001600160a01b03604051926390bfb86560e01b845216600483015263a9059cbb60e01b6024830152608060448301528060a00160648301523d60848301523d5f60a484013e7ff27f64e40000000000000000000000000000000000000000000000000000000060c4828401600460a4820152015260e40190fd5b601f19601f3d01166001600160a01b03604051926390bfb86560e01b84521660048301525f6024830152608060448301528060a00160648301523d60848301523d5f60a484013e7ff4b3b1bc0000000000000000000000000000000000000000000000000000000060c4828401600460a4820152015260e40190fd5b906144bf575080511561449757602081519101fd5b7fd6bda275000000000000000000000000000000000000000000000000000000005f5260045ffd5b81511580614505575b6144d0575090565b6001600160a01b03907f9996b315000000000000000000000000000000000000000000000000000000005f521660045260245ffd5b50803b156144c8565b906001600160801b03821680920361452257565b7f93dafdf1000000000000000000000000000000000000000000000000000000005f5260045ffd5b604051600160f91b6020820152600b60f81b6021820152600b60f81b6022820152600381526105fe6023826103d6565b67ffffffffffffffff81116103615760051b60200190565b9061459c8261457a565b6145a960405191826103d6565b82815280926145ba601f199161457a565b01905f5b8281106145ca57505050565b8060606020809385010152016145be565b604051906145ea6020836103d6565b5f808352366020840137565b946001600160801b039290836001600160a01b03966105fe9b9a96829461465e8b6101809d986001600160a01b036080809282815116855282602082015116602086015262ffffff6040820151166040860152606081015160020b6060860152015116910152565b60020b60a08b015260020b60c08a01521660e0880152166101008601521661012084015216610140820152816101608201520190610d94565b8051156146a45760200190565b634e487b7160e01b5f52603260045260245ffd5b8051600110156146a45760400190565b8051600210156146a45760600190565b80518210156146a45760209160051b010190565b95919293949094600481141580614884575b61485957936147786147f394612c50602095612c5099956147216148209a614592565b9b861561484857808901516001600160801b0316965b1561483757516001600160801b03165b61475f89614756875160020b90565b96015160020b90565b966147686145db565b936040519889978b8d8a016145f6565b61478187614697565b5261478b86614697565b50612c506147d16147a383516001600160a01b031690565b60405192839186830160405f919392936001600160a01b036060820195168152600160ff1b60208201520152565b6147da876146b8565b526147e4866146b8565b5001516001600160a01b031690565b604080516001600160a01b039092166020830152600160ff1b908201525f60608201529182906080820190565b614829826146c8565b52614833816146c8565b5090565b8801516001600160801b0316614747565b80516001600160801b031696614737565b7f1e1a3c5b000000000000000000000000000000000000000000000000000000005f5260045260245ffd5b5060058114156146fe565b6040519061489c826103ba565b5f6020838281520152565b6148b86148b261488f565b91614bfd565b908160020b620d89e803627fffff8113627fffff198212176114a6578360020b9060020b1315614942575080826148f2816105fe94614e65565b915f600284900b12614936570160020b0360020b915b6149118161330f565b0260020b61492c60405193614925856103ba565b60020b8452565b60020b6020830152565b90500360020b91614908565b91505090565b9061495a61495461488f565b92614bfd565b91620d89e88360020b01627fffff8113627fffff198212176114a6578260020b9060020b12614942575080806149926105fe936132fd565b0260020b926149a18282614e65565b915f600284900b126149cc57500360020b5b604051926149c0846103ba565b835260020b6020830152565b91900360020b0360020b6149b3565b6003815103614a16576105fe6001602092836040519485928051918291018385015e820101600160f91b81520301601f1981018352826103d6565b517f23b1c14e000000000000000000000000000000000000000000000000000000005f5260045260245ffd5b94906001600160a01b03946105fe9998946101809894614aa7896001600160801b03956001600160a01b036080809282815116855282602082015116602086015262ffffff6040820151166040860152606081015160020b6060860152015116910152565b60020b60a089015260020b60c08801521660e086015261010085015261012084015216610140820152816101608201520190610d94565b919395949286516005810361485957509282614b5e95926001600160801b039795614b126140326020612c50980151151590565b90151514918215614b7d575f925b15614b7557516001600160801b0316955b614b416020614756875160020b90565b614b496145db565b958a6040519b8c9a1695169360208a01614a42565b614b696003836146d8565b526148336003826146d8565b505f95614b31565b80516001600160801b031692614b20565b908251600481141580614bf2575b61485957506001600160a01b0390816040519316602084015216604082015230606082015260608152614bd06080826103d6565b81515f1981019081116114a65761483391614beb82856146d8565b52826146d8565b506005811415614b9c565b73fffd8963efd1fc6a506488495d951d51639616826401000276a21982016001600160a01b031611614e60576001600160a01b0316614c3c8160201b90565b80614c4f614c4983614eac565b60ff1690565b9160808310614e535750607e1982011c905b607f190160401b90800280607f1c8160ff1c1c800280607f1c8160ff1c1c800280607f1c8160ff1c1c800280607f1c8160ff1c1c800280607f1c8160ff1c1c800280607f1c8160ff1c1c80029081607f1c8260ff1c1c80029283607f1c8460ff1c1c80029485607f1c8660ff1c1c80029687607f1c8860ff1c1c80029889607f1c8a60ff1c1c80029a8b607f1c8c60ff1c1c80029c8d80607f1c9060ff1c1c800260cd1c6604000000000000169d60cc1c6608000000000000169c60cb1c6610000000000000169b60ca1c6620000000000000169a60c91c6640000000000000169960c81c6680000000000000169860c71c670100000000000000169760c61c670200000000000000169660c51c670400000000000000169560c41c670800000000000000169460c31c671000000000000000169360c21c672000000000000000169260c11c674000000000000000169160c01c678000000000000000161717171717171717171717171717693627a301d71055774c85027ffffffffffffffffffffffffffffffffffd709b7e5480fba5a50fed5e62ffc5568101614e069060801d90565b60020b906fdb2df09e81959a81455e260799a0632f0160801d60020b918260020b8260020b145f14614e385750905090565b6001600160a01b03614e4984613330565b16116136ed575090565b905081607f031b90614c61565b614e77565b9060020b9081156117ac5760020b0790565b6001600160a01b03907f61487524000000000000000000000000000000000000000000000000000000005f521660045260245ffd5b801561027a577f07060605060205000602030205040001060502050303040105050304000000006f8421084210842108cc6318c6db6d54be826001600160801b031060071b83811c67ffffffffffffffff1060061b1783811c63ffffffff1060051b1783811c61ffff1060041b1783811c60ff1060031b1792831c1c601f161a179056fea264697066735822122031c3262f98f2f0f5c7aef2b00883d4dfdaf835e25bb24fd2fa69fd2306acd49464736f6c634300081a0033",
  "libraries": {
    "UniClearDeployer": "0x4F82aF98e689586Dea66770F4502D7e1409a5376"
  },
  "devdoc": {
    "errors": {
      "AccessControlBadConfirmation()": [
        {
          "details": "The caller of a function is not the expected one. NOTE: Don't confuse with {AccessControlUnauthorizedAccount}."
        }
      ],
      "AccessControlUnauthorizedAccount(address,bytes32)": [
        {
          "details": "The `account` is missing a role."
        }
      ],
      "AddressEmptyCode(address)": [
        {
          "details": "There's no code at `target` (it is not a contract)."
        }
      ],
      "AmountOverflow(uint256)": [
        {
          "params": {
            "currencyAmount": "The invalid currency amount"
          }
        }
      ],
      "ERC1967InvalidImplementation(address)": [
        {
          "details": "The `implementation` of the proxy is invalid."
        }
      ],
      "ERC1967NonPayable()": [
        {
          "details": "An upgrade function sees `msg.value > 0` that may be lost."
        }
      ],
      "FailedCall()": [
        {
          "details": "A call to an address target failed. The target may have reverted."
        }
      ],
      "InvalidInitialization()": [
        {
          "details": "The contract is already initialized."
        }
      ],
      "NotInitializing()": [
        {
          "details": "The contract is not initializing."
        }
      ],
      "PriceIsZero(uint256)": [
        {
          "params": {
            "price": "The invalid price in Q96 format in terms of currency1/currency0"
          }
        }
      ],
      "PriceTooHigh(uint256,uint256)": [
        {
          "params": {
            "maxPrice": "The maximum price (type(uint160).max)",
            "price": "The invalid price in Q96 format in terms of currency1/currency0"
          }
        }
      ],
      "SafeERC20FailedOperation(address)": [
        {
          "details": "An operation with an ERC-20 token failed."
        }
      ],
      "SqrtPriceX96OutOfBounds(uint160,uint160,uint160)": [
        {
          "params": {
            "maxSqrtPriceX96": "The maximum sqrt price (TickMath.MAX_SQRT_PRICE)",
            "minSqrtPriceX96": "The minimum sqrt price (TickMath.MIN_SQRT_PRICE)",
            "sqrtPriceX96": "The invalid sqrt price in Q96 format"
          }
        }
      ],
      "UUPSUnauthorizedCallContext()": [
        {
          "details": "The call is from an unauthorized context."
        }
      ],
      "UUPSUnsupportedProxiableUUID(bytes32)": [
        {
          "details": "The storage `slot` is unsupported as a UUID."
        }
      ]
    },
    "events": {
      "Initialized(uint64)": {
        "details": "Triggered when the contract has been initialized or reinitialized."
      },
      "RoleAdminChanged(bytes32,bytes32,bytes32)": {
        "details": "Emitted when `newAdminRole` is set as ``role``'s admin role, replacing `previousAdminRole` `DEFAULT_ADMIN_ROLE` is the starting admin for all roles, despite {RoleAdminChanged} not being emitted to signal this."
      },
      "RoleGranted(bytes32,address,address)": {
        "details": "Emitted when `account` is granted `role`. `sender` is the account that originated the contract call. This account bears the admin role (for the granted role). Expected in cases where the role was granted using the internal {AccessControl-_grantRole}."
      },
      "RoleRevoked(bytes32,address,address)": {
        "details": "Emitted when `account` is revoked `role`. `sender` is the account that originated the contract call:   - if using `revokeRole`, it is the admin role bearer   - if using `renounceRole`, it is the role bearer (i.e. `account`)"
      },
      "Upgraded(address)": {
        "details": "Emitted when the implementation is upgraded."
      }
    },
    "kind": "dev",
    "methods": {
      "deployTokenAndLaunchAuction((string,string,uint256),(address,int24,uint64,uint64,uint64,uint256,uint128,uint128),bytes32,string)": {
        "params": {
          "auctionConfig": "Configuration for the auction",
          "salt": "Salt to create token and auction",
          "tokenConfig": "Configuration for the new token"
        },
        "returns": {
          "_auction": "The created auction contract"
        }
      },
      "getRoleAdmin(bytes32)": {
        "details": "Returns the admin role that controls `role`. See {grantRole} and {revokeRole}. To change a role's admin, use {_setRoleAdmin}."
      },
      "grantRole(bytes32,address)": {
        "details": "Grants `role` to `account`. If `account` had not been already granted `role`, emits a {RoleGranted} event. Requirements: - the caller must have ``role``'s admin role. May emit a {RoleGranted} event."
      },
      "hasRole(bytes32,address)": {
        "details": "Returns `true` if `account` has been granted `role`."
      },
      "launchAuction(address,uint256,(address,int24,uint64,uint64,uint64,uint256,uint128,uint128),bytes32,string)": {
        "params": {
          "auctionConfig": "Configuration for the auction",
          "reserveSupply": "Amount of token reserve for liquidity",
          "salt": "Salt to create token and auction",
          "tokenAddress": "Token address use for auction"
        },
        "returns": {
          "_auction": "The created auction contract"
        }
      },
      "migrate(address)": {
        "params": {
          "token": "Address of the token to migrate"
        }
      },
      "proxiableUUID()": {
        "details": "Implementation of the ERC-1822 {proxiableUUID} function. This returns the storage slot used by the implementation. It is used to validate the implementation's compatibility when performing an upgrade. IMPORTANT: A proxy pointing at a proxiable contract should not be considered proxiable itself, because this risks bricking a proxy that upgrades to it, by delegating to itself until out of gas. Thus it is critical that this function revert if invoked through a proxy. This is guaranteed by the `notDelegated` modifier."
      },
      "renounceRole(bytes32,address)": {
        "details": "Revokes `role` from the calling account. Roles are often managed via {grantRole} and {revokeRole}: this function's purpose is to provide a mechanism for accounts to lose their privileges if they are compromised (such as when a trusted device is misplaced). If the calling account had been revoked `role`, emits a {RoleRevoked} event. Requirements: - the caller must be `callerConfirmation`. May emit a {RoleRevoked} event."
      },
      "revokeRole(bytes32,address)": {
        "details": "Revokes `role` from `account`. If `account` had been granted `role`, emits a {RoleRevoked} event. Requirements: - the caller must have ``role``'s admin role. May emit a {RoleRevoked} event."
      },
      "supportsInterface(bytes4)": {
        "details": "Returns true if this contract implements the interface defined by `interfaceId`. See the corresponding https://eips.ethereum.org/EIPS/eip-165#how-interfaces-are-identified[ERC section] to learn more about how these ids are created. This function call must use less than 30 000 gas."
      },
      "upgradeToAndCall(address,bytes)": {
        "custom:oz-upgrades-unsafe-allow-reachable": "delegatecall",
        "details": "Upgrade the implementation of the proxy to `newImplementation`, and subsequently execute the function call encoded in `data`. Calls {_authorizeUpgrade}. Emits an {Upgraded} event."
      }
    },
    "stateVariables": {
      "auctionInfo": {
        "params": {
          "token": "Address of the token"
        },
        "returns": {
          "auction": "Auction contract address",
          "creator": "Auction creator address",
          "endBlock": "Auction end block",
          "raisedCurrency": "Currency address",
          "reserveSupply": "Reserve supply amount"
        }
      }
    },
    "version": 1
  },
  "userdoc": {
    "errors": {
      "AmountOverflow(uint256)": [
        {
          "notice": "Thrown when calculated amount exceeds uint128 max value"
        }
      ],
      "CurrencyAmountTooHigh(uint256,uint256)": [
        {
          "notice": "Error thrown when currency amount is too high"
        }
      ],
      "InsufficientCurrency(uint256,uint256)": [
        {
          "notice": "Error thrown when insufficient currency balance"
        }
      ],
      "MigrationNotAllowed(uint256,uint256)": [
        {
          "notice": "Error thrown when migration is attempted before allowed block"
        }
      ],
      "NoCurrencyRaised()": [
        {
          "notice": "Error thrown when no currency was raised"
        }
      ],
      "PriceIsZero(uint256)": [
        {
          "notice": "Thrown when price is invalid (0 or out of bounds)"
        }
      ],
      "PriceTooHigh(uint256,uint256)": [
        {
          "notice": "Thrown when price is too high"
        }
      ],
      "SqrtPriceX96OutOfBounds(uint160,uint160,uint160)": [
        {
          "notice": "Thrown when price is out of bounds"
        }
      ]
    },
    "events": {
      "AuctionCreated(address,address,address,(address,int24,uint64,uint64,uint64,uint256,uint128,uint128))": {
        "notice": "Emitted when a new auction is created"
      },
      "Migrated((address,address,uint24,int24,address),uint160)": {
        "notice": "Emitted when an auction is migrated to a Uniswap pool"
      }
    },
    "kind": "user",
    "methods": {
      "FULL_RANGE_SIZE()": {
        "notice": "Number of params needed for a standalone full-range position         (1. mint, 2. settle, 3. settle, 4. take pair)"
      },
      "FULL_RANGE_WITH_ONE_SIDED_SIZE()": {
        "notice": "Number of params needed for full-range + one-sided position         (1. mint full range, 2. settle, 3. settle, 4. mint one-sided, 5. take pair)"
      },
      "auctionInfo(address)": {
        "notice": "Get auction information for a token"
      },
      "deployTokenAndLaunchAuction((string,string,uint256),(address,int24,uint64,uint64,uint64,uint256,uint128,uint128),bytes32,string)": {
        "notice": "Deploy a new token and create an auction using specific currency"
      },
      "launchAuction(address,uint256,(address,int24,uint64,uint64,uint64,uint256,uint128,uint128),bytes32,string)": {
        "notice": "Create an auction using specific currency"
      },
      "migrate(address)": {
        "notice": "Migrate an auction to a Uniswap v4 pool"
      }
    },
    "version": 1
  },
  "storageLayout": {
    "storage": [
      {
        "astId": 13652,
        "contract": "contracts/UniClearLauncher.sol:UniClearLauncher",
        "label": "auctionInfo",
        "offset": 0,
        "slot": "0",
        "type": "t_mapping(t_address,t_struct(AuctionInfo)15737_storage)"
      },
      {
        "astId": 13654,
        "contract": "contracts/UniClearLauncher.sol:UniClearLauncher",
        "label": "ccaFactory",
        "offset": 0,
        "slot": "1",
        "type": "t_address"
      },
      {
        "astId": 13656,
        "contract": "contracts/UniClearLauncher.sol:UniClearLauncher",
        "label": "deployFee",
        "offset": 0,
        "slot": "2",
        "type": "t_uint256"
      },
      {
        "astId": 13658,
        "contract": "contracts/UniClearLauncher.sol:UniClearLauncher",
        "label": "create2Deployer",
        "offset": 0,
        "slot": "3",
        "type": "t_address"
      },
      {
        "astId": 13661,
        "contract": "contracts/UniClearLauncher.sol:UniClearLauncher",
        "label": "positionManager",
        "offset": 0,
        "slot": "4",
        "type": "t_contract(IPositionManager)12986"
      }
    ],
    "types": {
      "t_address": {
        "encoding": "inplace",
        "label": "address",
        "numberOfBytes": "20"
      },
      "t_contract(IContinuousClearingAuction)15392": {
        "encoding": "inplace",
        "label": "contract IContinuousClearingAuction",
        "numberOfBytes": "20"
      },
      "t_contract(IPositionManager)12986": {
        "encoding": "inplace",
        "label": "contract IPositionManager",
        "numberOfBytes": "20"
      },
      "t_mapping(t_address,t_struct(AuctionInfo)15737_storage)": {
        "encoding": "mapping",
        "key": "t_address",
        "label": "mapping(address => struct IUniClearLauncher.AuctionInfo)",
        "numberOfBytes": "32",
        "value": "t_struct(AuctionInfo)15737_storage"
      },
      "t_struct(AuctionInfo)15737_storage": {
        "encoding": "inplace",
        "label": "struct IUniClearLauncher.AuctionInfo",
        "members": [
          {
            "astId": 15728,
            "contract": "contracts/UniClearLauncher.sol:UniClearLauncher",
            "label": "auction",
            "offset": 0,
            "slot": "0",
            "type": "t_contract(IContinuousClearingAuction)15392"
          },
          {
            "astId": 15730,
            "contract": "contracts/UniClearLauncher.sol:UniClearLauncher",
            "label": "creator",
            "offset": 0,
            "slot": "1",
            "type": "t_address"
          },
          {
            "astId": 15732,
            "contract": "contracts/UniClearLauncher.sol:UniClearLauncher",
            "label": "raisedCurrency",
            "offset": 0,
            "slot": "2",
            "type": "t_address"
          },
          {
            "astId": 15734,
            "contract": "contracts/UniClearLauncher.sol:UniClearLauncher",
            "label": "reserveSupply",
            "offset": 0,
            "slot": "3",
            "type": "t_uint128"
          },
          {
            "astId": 15736,
            "contract": "contracts/UniClearLauncher.sol:UniClearLauncher",
            "label": "endBlock",
            "offset": 16,
            "slot": "3",
            "type": "t_uint64"
          }
        ],
        "numberOfBytes": "128"
      },
      "t_uint128": {
        "encoding": "inplace",
        "label": "uint128",
        "numberOfBytes": "16"
      },
      "t_uint256": {
        "encoding": "inplace",
        "label": "uint256",
        "numberOfBytes": "32"
      },
      "t_uint64": {
        "encoding": "inplace",
        "label": "uint64",
        "numberOfBytes": "8"
      }
    }
  }
}